:020000040800F2
:100000000033002001010008792D00086D27000849
:10001000752D0008B9060008C5330008000000006F
:10002000000000000000000000000000E92E0008B1
:10003000BD060008000000007B2D0008EB2E000824
:100040001B0100081B0100081B0100081B01000820
:100050001B0100081B0100081B0100081B01000810
:100060001B0100081B010008BF0600081B01000857
:100070001B0100081B0100081B0100081B010008F0
:100080001B0100081B0100081B0100081B010008E0
:100090001B0100081B0100081B010008C90600081D
:1000A0001B010008BD2F00081B0100081B010008F0
:1000B0001B0100081B0100081B0100081B010008B0
:1000C0001B0100081B0100081B0100081B010008A0
:1000D0001B0100081B0100081B0100081B01000890
:1000E0001B0100081B0100081B010008DFF80CD0F1
:1000F00000F052FA004800472D4700080033002066
:100100000648804706480047FEE7FEE7FEE7FEE7B1
:10011000FEE7FEE7FEE7FEE7FEE7FEE7652F0008E5
:10012000ED000008202A04DB203A21FA02F0002129
:10013000704721FA02F3D040C2F1200291400843F7
:100140001946704740EA01039B0703D009E008C93C
:10015000121F08C0042AFAD203E011F8013B00F88C
:10016000013B521EF9D27047D2B201E000F8012BD8
:10017000491EFBD270470022F6E710B513460A4627
:1001800004461946FFF7F0FF204610BD421C10F848
:10019000011B0029FBD1801A704730B50B46014680
:1001A00000202022012409E021FA02F59D4205D316
:1001B00003FA02F5491B04FA02F52844151EA2F1C0
:1001C0000102F1DC30BD2DE9F05F054600209246CA
:1001D0009B4688460646814640241BE02846414609
:1001E00047462246FFF79EFF53465A46C01A9141A2
:1001F00010D311461846224600F0E0F92D1A67EB9D
:1002000001084F4622460120002100F0D7F917EBE4
:1002100000094E41201EA4F10104DFDC48463146AE
:100220002A464346BDE8F09F2DE9FE4F804681EA0D
:100230000300C00F0C46009021F0004123F0004560
:10024000B8EB0200A94105D24046214690461C4623
:100250000B46024623F00040104347D0270DC7F35A
:100260000A00C3F30A510290401A019040286BDA49
:10027000C3F3130040F4801B0098924620B1002382
:10028000D2EB030A63EB0B0B01985946C0F1400215
:10029000504600F093F906460D4650465946019ADD
:1002A00000F09BF910EB08006141002487EA11522D
:1002B00084EAE7731A4340D0009A62B3019A012A94
:1002C0004FEA075215DC001B61EB02014FF00042C0
:1002D00002EA0752CDE90042001C41F58011324686
:1002E0002B4600F09BF903B0BDE8F08F4046214655
:1002F000F9E7001B61EB0201001C41F580130018B7
:100300005B412018A2F5001747EB030140EAD570C6
:10031000B6196D4111E06D084FEA360645EAC07521
:100320004FEA0752001B61EB0201001C41F58011EE
:1003300049084FEA30000019514132462B4603B0BC
:10034000BDE8F04F00F05BB90098012240000023A7
:10035000D0EB020263EBE073009821464FEAE074B1
:10036000B8EB000061EB0401E9E783F000435BE7D1
:1003700081F0004158E72DE9FE4F81EA030404F0C3
:10038000004421F0004100944FF0000B23F00043A3
:1003900050EA01045ED052EA03045BD0C3F30A546E
:1003A000C1F30A552C44A4F2F3340194A0FB025487
:1003B000C1F3130141F48011C3F3130343F4801319
:1003C00001FB024400FB034E840A970A44EA81546D
:1003D00047EA8357A4FB076802958D0A05FB07854A
:1003E0004FEA932C04FB0C542705029D4FEA065854
:1003F00047EA1637B5EB08056EEB070C870E920E31
:1004000047EA811742EA8312A7FB0201B6EB0B0110
:1004100064EB00042B0D43EA0C335E1844EB1C50D4
:10042000DA465146E7FB0201C5F313044FEA0B33EA
:1004300043EA14534FEA0432019C43EA0603A4F151
:100440000C040294009CCDE900B400F0E7F803B07E
:10045000BDE8F08F00200146F9E72DE9F04D81EA73
:10046000030404F0004B21F0004514464FF0000A4D
:1004700023F0004150EA050220D054EA01021DD0C9
:10048000C5F30A570246C5F31303C1F31300C1F3C2
:100490000A5640F4801543F48013A7EB0608101B9E
:1004A000D64608F2FD3873EB050002D308F10108C7
:1004B00001E092185B41B8F1000F03DA0020014619
:1004C000BDE8F08D00204FF48011064684460EE012
:1004D000171B73EB050705D3121B63EB05030643DC
:1004E0004CEA010C49084FEA300092185B4150EA8F
:1004F0000107EDD152EA030012D082EA040083EA38
:100500000501084305D0101BAB4106D20122002390
:1005100006E000224FF0004302E06FF001025310AA
:100520001AEB06004CEB085110EB0A0041EB0B01F3
:10053000BDE8F04D00F063B8C1F30A52C1F31301F6
:1005400040F2FF3341F480119A4202DA0020014662
:10055000704740F233439A42A2F2334202DC5242E5
:10056000FFF7E0BD00F02AB830B5041E71F10004B9
:1005700004DB4FF00044404264EB0101141E73F1B0
:10058000000405DB1C464FF00043524263EB0403BA
:10059000994208BF904230BD064C074D06E0E06826
:1005A00040F0010394E8070098471034AC42F6D3BA
:1005B000FFF7A0FD7449000894490008202A04DBD5
:1005C000203A00FA02F1002070479140C2F1200366
:1005D00020FA03F3194390407047202A06DBCB171B
:1005E000203A41FA02F043EAE07306E041FA02F3EE
:1005F000D040C2F12002914008431946704710B51F
:10060000141E73F1000408DA401C41F10001921835
:100610005B411A4301D120F0010010BD2DE9F04DDE
:1006200092469B4611B1B1FA81F202E0B0FA80F233
:1006300020329046FFF7C2FF04460F4640EA0A0008
:1006400041EA0B0153465A46084313D0114653EA78
:10065000010019D0C8F140025046FFF763FD05467E
:100660000E46504659464246FFF7A8FF084305D0BC
:10067000012004E020463946BDE8F08D0020054306
:1006800046EAE0762C4337430A986305E40AA0EB78
:1006900008000022FD0A44EA47540A3002D500202F
:1006A0000146E9E7010510196941DDE9084500192E
:1006B0006941BDE8F04DA2E700BFFEE7704710B505
:1006C000102000F01DF810BD10B5202000F018F823
:1006D00010BD704770B5044600F0BEF906462546C9
:1006E000681C10B104480078054400BF00F0B4F95C
:1006F000801BA842FAD370BDF000002070470000B4
:1007000010B5044604480068204020B10248046047
:100710002046FFF7F3FF10BD140401402DE9F84710
:100720000346002294466EE14FF0010808FA02F4F5
:10073000D1F8008008EA0400A0427DD1DFF8DCA2F5
:10074000D1F80480A8EB0A09D0453AD014DCB8F1FE
:10075000030F50D009DCB8F1000F31D0B8F1010F10
:100760001CD0B8F1020F49D120E0B8F1110F18D018
:10077000B8F1120F42D11EE0B9F5881F25D006DC72
:10078000B9F5803F20D0B9F5801F37D11AE0B9F50F
:10079000001F18D0B9F5041F30D117E0D1F80CC0F4
:1007A0002DE0D1F80C8008F1040C28E0D1F80C8081
:1007B00008F1080C23E0D1F80C8008F10C0C1EE0C5
:1007C00000BF00BF00BF00BF00BF00BFD1F808805E
:1007D000B8F1000F02D14FF0040C0BE0D1F8088003
:1007E000B8F1010F03D14FF0080C1C6102E04FF08B
:1007F000080C5C6103E04FF0000C00E000BF00BF9C
:10080000FF2801D8984601E003F104084646FF2876
:1008100002D84FEA820803E0A2F108084FEA8808EC
:100820004746D6F800804FF00F0909FA07F928EA81
:1008300009080CFA07F900E088E048EA0908C6F858
:100840000080D1F8048008F08058B8F1805F7DD135
:1008500000BFDFF8CC81D8F8188048F00108DFF835
:10086000C091C9F81880C846D8F8188008F0010867
:10087000CDF8008000BF00BF4FEAB9384FEA9209B7
:1008800058F829504FEA82784FEA18794FF00F084C
:1008900008FA09F825EA0805DFF88881434502D1FE
:1008A0004FF0000816E0DFF88081434502D14FF099
:1008B00001080FE0DFF87481434502D14FF00208D0
:1008C00008E0DFF86C81434502D14FF0030801E0F6
:1008D0004FF004084FEA82794FEA197908FA09F8CB
:1008E00048EA0505DFF84C814FEA920948F829509B
:1008F000D1F8048008F48038B8F5803F0AD1DFF8D9
:100900003881D8F8008048EA0008DFF82C91C9F84F
:10091000008009E0DFF82081D8F8008028EA00088C
:10092000DFF81491C9F80080D1F8048008F4003889
:10093000B8F5003F10D1DFF8008108F10408D8F8BD
:10094000008048EA0008DFF8F09000E05AE009F182
:100950000409C9F800800DE0DFF8DC8008F1040824
:10096000D8F8008028EA0008DFF8CC9009F10409E3
:10097000C9F80080D1F8048008F48018B8F5801F09
:100980000ED1DFF8B48008F10808D8F8008048EAF2
:100990000008DFF8A49009F10809C9F800800DE00B
:1009A000DFF8948008F10808D8F8008028EA0008E9
:1009B000DFF8849009F10809C9F80080D1F80480B3
:1009C00008F40018B8F5001F0ED1DFF86C8008F1AC
:1009D0000C08D8F8008048EA0008DFF85C9009F1BC
:1009E0000C09C9F800800DE0DFF84C8008F10C0814
:1009F000D8F8008028EA0008DFF83C9009F10C09DB
:100A0000C9F80080521CD1F8008028FA02F8B8F129
:100A1000000F7FF489AEBDE8F887000000001110D8
:100A20000010024000080140000C0140001001408D
:100A3000001401400800014000040140C2680A405F
:100A40000AB1416100E0016170470AB1016101E052
:100A50000B04036170470000014800687047000004
:100A6000E800002070B504460CB9012070BD94F870
:100A70003D0028B9002084F83C00204600F058FAD8
:100A8000242084F83D002068006820F001002168DF
:100A9000086000F04DFD05465C496068884206D854
:100AA0005B48854201D2012007E0002005E059485B
:100AB000854201D2012000E00020012800D1D5E7C5
:100AC0005548B5FBF0F62068406820F03F00304301
:100AD000216848604D496068884201D8701C07E071
:100AE0004FF4967070434FF47A71B0FBF1F0401CF4
:100AF0002168096A21F03F010843216808624349DF
:100B00006068884214D8681E61684900B0FBF1F043
:100B1000401CC0F30B00042801D204203DE0681EF5
:100B200061684900B0FBF1F0401CC0F30B0034E0F9
:100B3000A06838B9681E616801EB4101B0FBF1F0B3
:100B4000401C0AE0681E616801EBC10202EB011162
:100B5000B0FBF1F0401C40F48040C0F30B0008B93A
:100B600001201AE0A06848B9681E616801EB4101E4
:100B7000B0FBF1F0401CC0F30B000CE0681E616894
:100B800001EBC10202EB0111B0FBF1F0401CC0F31C
:100B90000B0040F4804040F400402168C9694CF6E5
:100BA000FF72914308432168C861D4E907010843F3
:100BB0002168096821F0C001084321680860D4E970
:100BC000031008432168896848F2FF3291430843C3
:100BD00021688860D4E9050108432168C96821F0CB
:100BE000FF0108432168C8602068006840F00100E8
:100BF0002168086000202064202084F83D00002047
:100C0000206384F83E0000BF30E70000A0860100AA
:100C100080841E0000093D0040420F002DE9F84F7E
:100C200004460F4690461E46FFF716FF05464FF056
:100C3000010994F83D0020287ED1192301225E4944
:100C40002046009501F038FE10B10220BDE8F88F73
:100C500000BF94F83C00012801D10220F6E70120F2
:100C600084F83C0000BF2068006800F0010028B94B
:100C70002068006840F00100216808602068006872
:100C800020F4006021680860242084F83D000020E2
:100C900020644A48E06200BF2068006840F4807029
:100CA00021680860334600224FF00111204600956C
:100CB00001F002FE08B10120C8E707F0FE0021683C
:100CC0000861FFF7C9FE054620684069C0F3400A85
:100CD00020684069C0F3802B10E0FFF7BDFE401B89
:100CE000B04200D816B9A02084F83D0020684069C1
:100CF000C0F3400A20684069C0F3802B94F83D009F
:100D0000A02805D0BAF1000F02D1BBF1000FE4D04A
:100D1000202084F83D0020684069C0F3400028B3DB
:100D20002068006840F400702168086000BF00205F
:100D300000902068406900E03BE0009020688069F6
:100D4000009000BF00BF192301221B4920460095D7
:100D500001F0B2FD08B1012078E7202084F83D00C1
:100D600000BF002084F83C0000BF6FE720680068E7
:100D700040F40070216808606FF480602168486169
:100D8000192301220C492046009501F095FD08B178
:100D900001205BE709F10109C145FFF47DAF202087
:100DA00084F83D0000BF002084F83C0000BF012013
:100DB0004CE702204AE70000020010000000FFFF9D
:100DC0002DE9F8430446894616461F46DDF8208083
:100DD000FFF742FE054694F83D0020287ED11923F6
:100DE000012251492046009501F066FD10B1022014
:100DF000BDE8F88300BF94F83C00012801D102202F
:100E0000F6E7012084F83C0000BF2068006800F08D
:100E1000010028B92068006840F0010021680860DE
:100E20002068006820F4006021680860212084F8B0
:100E30003D00102084F83E00002020646662678533
:100E4000608D20853948E0622B464246494620465F
:100E500001F0AEFC08B10120CAE700BF00200090FD
:100E600020684069009020688069009000BF00BF42
:100E700044E02A464146204601F0C3FD50B1206CB3
:100E8000042805D12068006840F4007021680860DB
:100E90000120ADE7606A007821680861606A401C43
:100EA0006062608D401E6085208D401E2085206818
:100EB0004069C0F3800070B1208D60B1606A007835
:100EC00021680861606A401C6062608D401E608518
:100ED000208D401E20852A46414600E022E0204623
:100EE00001F0BCFC50B1206C042805D120680068DA
:100EF00040F4007021680860012079E7208D002807
:100F0000B7D12068006840F4007021680860202094
:100F100084F83D00002084F83E0000BF84F83C00C7
:100F200000BF65E7022063E7020010000000FFFF3A
:100F300010B586B0044600200290039004900590FE
:100F400015492068884225D100BF1448806940F0C7
:100F50000800124988610846806900F00800019085
:100F600000BF00BFC0200290122003900320059014
:100F700002A90B48FFF7D2FB00BF0848C06940F444
:100F800000100649C8610846C06900F400100190CD
:100F900000BF00BF06B010BD00540040001002406A
:100FA000000C0140034800680349097808440149DE
:100FB00008607047E8000020F000002010B50848E5
:100FC000006840F0100006490860032000F0A8F80F
:100FD000002000F007F800F02BF8002010BD000002
:100FE0000020024070B504460E4800784FF47A7134
:100FF000B1FBF0F00C490968B1FBF0F5284600F0B0
:1010000032FF08B1012070BD102C07D2002221460A
:10101000501E00F047F80548046001E00120F2E7A7
:101020000020F0E7F0000020F4000020EC00002099
:1010300008B500BF1148806940F001000F49886180
:101040000846806900F00100009000BF00BF00BFAB
:101050000846C06940F08050C8610846C06900F089
:101060008050009000BF00BF00BF0549486820F0D5
:10107000E06040F00070486000BF08BD0010024012
:101080000000014001460846002809DB00F01F036C
:1010900001229A4043099B0003F1E023C3F8002199
:1010A00000BF70472DE9F05F80460D4616460027C9
:1010B00002F09CF9074639462A46334601F00700FC
:1010C000C0F1070ABAF1040F02D94FF0040A01E097
:1010D000C0F1070AD14600F1040ABAF1070F02D2A3
:1010E0004FF0000A01E0A0F1030AD4464FF0010AD4
:1010F0000AFA09FAAAF1010A0AEA020A0AFA0CFA39
:101100004FF0010B0BFA0CFBABF1010B0BEA030BDD
:101110004AEA0B042146404602F070F9BDE8F09F10
:1011200000BF00F00702064B19684FF6FF03194095
:10113000044B0B4343EA0221014B196000BF704787
:101140000CED00E00000FA0501200149086270473B
:1011500000000E422DE9F04385B006463BA30FCBBD
:1011600001AC0FC43DA0006800904FF000080025BE
:1011700000270024A146012E30D0022E55D0102E7B
:101180005ED137484468006800F0807000B301A861
:10119000C4F38341475C04F4803070B13048406848
:1011A000C0F340401DF8008004F4803040B12D4869
:1011B000B0FBF8F000FB07F502E02A4807FB00F55A
:1011C0002748406800F48000B0F5800F01D1A9469F
:1011D00003E068000321B0FBF1F932E02048046A23
:1011E00004F44070B0F5807F05D104F0020010B126
:1011F0004FF4004918E004F44070B0F5007F07D1C7
:101200001748406A00F0020010B149F640490BE06F
:1012100004F44070B0F5407F06D11148006800F436
:10122000003008B147F612290BE000F091F90C49A3
:101230004968C1F38131491C4900B0FBF1F900E074
:1012400000BF00BF484605B0BDE8F08302030405B7
:10125000060708090A0B0C0D0E0F10100102000002
:101260000010024000093D00F8B5044600260025A4
:10127000207800F0010000286BD000274348C069A7
:1012800000F0805070B900BF4048C06940F0805005
:101290003E49C8610846C06900F08050009000BF18
:1012A00000BF01273A48006800F48070B0B93848A0
:1012B000006840F4807036490860FFF7CDFB0646B1
:1012C00006E0FFF7C9FB801B642801D90320F8BDA5
:1012D0002F48006800F480700028F2D02B48006A84
:1012E00000F440752DB3A08800F44070A84220D0CF
:1012F0002648006A20F44075012026490860002035
:1013000008602248056205F0010090B1FFF7A4FBD8
:10131000064608E0FFF7A0FB801B41F288318842B7
:1013200001D90320D3E71948006A00F00200002821
:10133000F0D01648006A20F44070616808431349F1
:101340000862012F04D10846C06920F08050C861AE
:1013500000BF207800F00200022807D10B48406847
:1013600020F44040A168084308494860207800F014
:101370001000102807D10548406820F48000E1687B
:101380000843024948600020A1E700000010024025
:10139000007000404004424270B504460D460CB94E
:1013A000012070BD5A48006800F00700A8420ED224
:1013B0005748006820F00700284355490860084650
:1013C000006800F00700A84201D00120E9E720787A
:1013D00000F0020002281DD1207800F0040004284B
:1013E00005D14C48406840F4E0604A4948602078A4
:1013F00000F00800082805D14648406840F46050D5
:10140000444948604348406820F0F000A168084320
:1014100040494860207800F0010078B360680128F6
:1014200006D13C48006800F4003090B90120B8E7CC
:101430006068022806D13748006800F0007040B9A3
:101440000120AEE73348006800F0020008B901202F
:10145000A7E73048406820F00300616808432D4941
:101460004860FFF7F9FA064609E0FFF7F5FA801B36
:1014700041F28831884202D9032092E707E02548EB
:10148000406800F00C006168B0EB810FEDD120489E
:10149000006800F00700A8420ED91D48006820F03F
:1014A000070028431A4908600846006800F0070052
:1014B000A84201D0012074E7207800F0040004283D
:1014C00007D11448406820F4E060E16808431149FE
:1014D0004860207800F00800082808D10D484068CE
:1014E00020F46050216940EAC1000A49486000F0D8
:1014F0003FF808494968C1F30311074A515CC840E5
:101500000649086006480068FFF76CFD002048E7C0
:1015100000200240001002405C490008F400002056
:10152000EC0000200148006870470000F400002033
:1015300000B5FFF7F7FF04494968C1F30221034AE8
:10154000515CC84000BD0000001002406C4900081A
:1015500000B5FFF7E7FF04494968C1F3C221034A18
:10156000515CC84000BD0000001002406C490008FA
:10157000F0B585B00FF26C0C9CE8E01001A8A0E873
:10158000E0101CA52D6800950021002200230024F6
:101590000020194D696801F00C05F5B1042D02D049
:1015A000082D19D101E0154819E001ADC1F38346BA
:1015B000AC5D01F4803555B10F4D6D68C5F3404504
:1015C0001DF805200D4D6543B5FBF2F302E00B4D10
:1015D00004FB05F3184602E000BF094800BF00BF46
:1015E00005B0F0BD02030405060708090A0B0C0D3F
:1015F0000E0F1010010200000010024000093D0013
:1016000000127A00F8B504460CB90120F8BD207824
:1016100000F00100002878D0F848406800F00C0085
:1016200004280CD0F548406800F00C00082811D1BF
:10163000F248406800F48030B0F5803F0AD1EF48AE
:10164000006800F4003000285FD0606800285CD19A
:101650000120DBE700BF6068B0F5803F06D1E748B6
:10166000006840F48030E549086028E0606858B9B7
:10167000E248006820F48030E049086008460068CD
:1016800020F4802008601AE06068B0F5A02F0BD12C
:10169000DA48006840F48020D849086008460068AD
:1016A00040F4803008600AE0D448006820F48030BC
:1016B000D24908600846006820F48020086000BF16
:1016C000606888B1FFF7C8F9054606E0FFF7C4F97E
:1016D000401B642801D9032098E7C848006800F43B
:1016E00000300028F2D010E0FFF7B6F9054606E01A
:1016F000FFF7B2F9401B642801D9032086E7BF48F1
:10170000006800F400300028F2D1207800F00200D8
:10171000022857D1B948406800F00C0050B1B748D2
:10172000406800F00C00082818D1B448406800F464
:10173000803098B9B148006800F0020020B12069FB
:10174000012801D0012061E7AC48006820F0F800D2
:10175000616940EAC100A949086033E02069E8B145
:101760000120A7490860FFF777F9054606E0FFF773
:1017700073F9401B022801D9032047E79F480068FE
:1017800000F002000028F2D09C48006820F0F80029
:10179000616940EAC1009949086013E00020984956
:1017A0000860FFF759F9054606E0FFF755F9401BB9
:1017B000022801D9032029E79048006800F00200C0
:1017C0000028F2D1207800F0080008282DD1A06967
:1017D000B8B101208B490860FFF73EF9054606E0E5
:1017E000FFF73AF9401B022801D903200EE783488E
:1017F000406A00F002000028F2D0012001F0BEFA99
:1018000013E000207F490860FFF726F9054606E04F
:10181000FFF722F9401B022801D90320F6E677489A
:10182000406A00F002000028F2D1207800F00400A5
:10183000042873D100277148C06900F0805070B946
:1018400000BF6E48C06940F080506C49C8610846CE
:10185000C06900F08050009000BF00BF01276A48B7
:10186000006800F48070B0B96748006840F4807088
:1018700065490860FFF7F0F8054606E0FFF7ECF869
:10188000401B642801D90320C0E65F48006800F4CB
:1018900080700028F2D000BFE068012806D15748C8
:1018A000006A40F001005549086227E0E06858B935
:1018B0005248006A20F00100504908620846006A58
:1018C00020F00400086219E0E06805280BD14B48BD
:1018D000006A40F00400494908620846006A40F086
:1018E000010008620AE04548006A20F0010043490F
:1018F00008620846006A20F00400086200BFE06841
:10190000A0B1FFF7A9F8054609E0FFF7A5F8401BCD
:1019100041F28831884202D9032077E622E0374835
:10192000006A00F002000028EFD012E0FFF794F800
:10193000054608E0FFF790F8401B41F288318842E5
:1019400001D9032062E62D48006A00F00200002859
:10195000F0D1012F05D12948C06920F080502749D6
:10196000C86100BFE069C8B32448406800F00C00BB
:10197000082860D0E069022848D100202049086684
:10198000FFF76AF8054606E0FFF766F8401B0228F5
:1019900001D903203AE61948006800F000700028D9
:1019A000F2D1206AB0F5803F07D11448406820F496
:1019B0000030A168084311494860D4E90801084390
:1019C0000E49496821F4741108430C49486001200C
:1019D0000B490866FFF740F8054607E03DE0FFF7D2
:1019E0003BF8401B022801D903200FE6034800689A
:1019F00000F000700028F2D02FE00000001002403C
:101A0000000042428004424200700040002014491D
:101A10000866FFF721F8054606E0FFF71DF8401BB2
:101A2000022801D90320F1E50E48006800F000709B
:101A30000028F2D111E0E069012800D1E6E509486B
:101A4000466806F48031206A814204D106F47011A0
:101A5000606A814201D00120D8E50020D6E500006F
:101A6000000042420010024070B5044600250CB947
:101A7000012070BD607C20B900202074204600F059
:101A80005BF802206074204600F076F818B104205C
:101A900060740120EDE7204601F084F918B10420BC
:101AA00060740120E5E72068406820F007002168A5
:101AB0004860A06828B11F48006820F001001D4957
:101AC00008601C48001F006820F46070A16808438B
:101AD0001849091F08606068401C08B1656809E082
:101AE0000120FFF737FB05461DB904206074012073
:101AF000BFE76D1E2068806820F00F0040EA1540A7
:101B0000216888602068C06865F30F002168C8609C
:101B1000204601F064F918B1042060740120A8E7A0
:101B20000021E17301216173A17301206074002021
:101B30009FE70000306C004038B504460B49206830
:101B4000884212D1FFF700FB00BF0948C06940F08E
:101B500000600749C8610846C06900F00060009055
:101B600000BF00BF01200349086038BD00280040C5
:101B7000001002403C04424270B5044600250CB9F6
:101B8000012070BD2068406820F00800216848608E
:101B9000FEF762FF054607E0FEF75EFF401BB0F56B
:101BA0007A7F01D90320ECE72068406800F0080044
:101BB0000028F1D00020E4E710B504460CB901205C
:101BC00010BD606A00B900BF0021A16294F8510005
:101BD00028B9002084F85000204600F031F8022097
:101BE00084F851002068006820F0400021680860F7
:101BF000D4E901010843E1680843216908436169A8
:101C00000843218B01F400710843E1690843216A0C
:101C10000843A16A0843216808600421A06901EA19
:101C20001040216848602068C06920F40060216885
:101C3000C86100206065012084F851000020BFE7E2
:101C400010B586B0044600200290039004900590E1
:101C50001949206888422DD100BF1848806940F496
:101C60008050164988610846806900F480500190D0
:101C700000BF00BF00BF0846806940F004008861D3
:101C80000846806900F00400019000BF00BFA0205A
:101C90000290022003900320059002A90848FEF755
:101CA0003DFD4020029000200390049002A90448CA
:101CB000FEF734FD06B010BD0030014000100240B8
:101CC000000801402DE9F84F0446884616461D4697
:101CD0004FF0000A00BF94F85000012802D1022002
:101CE000BDE8F88F012084F8500000BFFEF7B4FE75
:101CF0000746B14694F85100012802D04FF0020A7D
:101D0000A7E0B8F1000F00D016B94FF0010AA0E02B
:101D1000032084F8510000206065C4F83080A68656
:101D2000E686A063A087E08760642064A068B0F5C1
:101D3000004F05D12068006840F4804021680860A9
:101D40002068006800F04000402805D02068006846
:101D500040F0400021680860E068B0F5006F2FD1C6
:101D6000606810B1B9F1010F09D1206B00882168BA
:101D7000C860206B801C2063E08E401EE0861BE064
:101D80002068806800F0020002280AD1206B0088D9
:101D90002168C860206B801C2063E08E401EE086B6
:101DA0000AE0FEF759FEC01BA84201D3681C00B927
:101DB00015B94FF0030A4CE0E08E0028E0D12EE088
:101DC000606810B1B9F1010F09D1206B007821686A
:101DD0000873206B401C2063E08E401EE0861BE0F1
:101DE0002068806800F0020002280AD1206B007889
:101DF00021680873206B401C2063E08E401EE08643
:101E00000AE0FEF729FEC01BA84201D3681C00B9F6
:101E100015B94FF0030A1CE0E08E0028E0D13A46E5
:101E20002946204600F0F8FF08B120206065A06830
:101E300050B900BF002000902068C0680090206862
:101E40008068009000BF00BF606D08B14FF0010ACC
:101E500000BF012084F8510000BF002084F850002A
:101E600000BF50463CE770B504462546681EB0F1F9
:101E7000807F01D301200FE0681E4FF0E021486110
:101E80000F214FF0FF3001F0B9FA00204FF0E021B0
:101E9000886107200861002070BD7047704710B549
:101EA0000346002200BF93F83C00012801D1022024
:101EB00010BD012083F83C0000BF22F0FF00CC6879
:101EC00040EA040222F440708C6840EA040222F4E2
:101ED00080604C6840EA040222F400600C6840EA2A
:101EE000040222F480500C6940EA040222F40050FB
:101EF0004C6940EA040222F48040CC6940EA0402C2
:101F00001868426400BF002083F83C0000BF00BF97
:101F1000CEE710B5024600BF92F83C00012801D17F
:101F2000022010BD012082F83C0000BF022082F890
:101F30003D00106843681068846823F070030868E7
:101F4000034324F080044868044310684360106829
:101F50008460012082F83D0000BF002082F83C0030
:101F600000BF00BFDDE7704710B504462068006978
:101F7000C0F34000D8B12068C068C0F34000B0B1E1
:101F80006FF00200216808610120207720688069D5
:101F900000F0030018B12046FFF7E5FF05E02046FA
:101FA00000F02EF9204600F01DFA0020207720686E
:101FB0000069C0F38000D8B12068C068C0F3800019
:101FC000B0B16FF00400216808610220207720681A
:101FD000806900F4407018B12046FFF7C4FF05E0A7
:101FE000204600F00DF9204600F0FCF90020207793
:101FF00020680069C0F3C000D8B12068C068C0F391
:10200000C000B0B16FF0080021680861042020779B
:102010002068C06900F0030018B12046FFF7A3FF55
:1020200005E0204600F0ECF8204600F0DBF9002047
:10203000207720680069C0F30010D8B12068C0681C
:10204000C0F30010B0B16FF01000216808610820E3
:1020500020772068C06900F4407018B12046FFF76F
:1020600082FF05E0204600F0CBF8204600F0BAF9E8
:10207000002020772068006900F0010058B1206836
:10208000C06800F0010030B16FF001002168086104
:10209000204600F0A9F920680069C0F3C01058B1CB
:1020A0002068C068C0F3C01030B16FF080002168B4
:1020B00008612046FFF7F1FE20680069C0F3801038
:1020C00058B12068C068C0F3801030B16FF0400094
:1020D00021680861204600F0F1F920680069C0F32A
:1020E000401058B12068C068C0F3401030B16FF0A4
:1020F0002000216808612046FFF7D0FE10BD0000D7
:1021000010B586B00446002002900390049005901C
:102110001B492068884217D100BF1A48806940F0E7
:102120000400184988610846806900F004000190A5
:1021300000BF00BFC814029002200390059002A9BE
:102140001148FEF7EBFA19E02068B0F1804F15D185
:1021500000BF0C48806940F004000A4988610846C5
:10216000806900F00400019000BF00BF02200290CF
:102170000390059002A90448FEF7D0FA06B010BDFE
:10218000002C0140001002400008014070B50446D8
:102190000E46154600BF94F83C00012801D10220EC
:1021A00070BD012084F83C0000BF022084F83D008F
:1021B00035B1042D09D0082D0CD00C2D14D10EE012
:1021C0003146206800F03CFF0FE03146206800F007
:1021D00067FF0AE03146206800F096FF05E03146CF
:1021E000206800F0C5FF00E000BF00BF012084F8B8
:1021F0003D0000BF002084F83C0000BF00BFCFE7D7
:10220000704710B504460CB9012010BD94F83D008C
:1022100028B9002084F83C00204600F00DF8022088
:1022200084F83D00211D206800F0D0FE012084F8D4
:102230003D000020E9E7000008B50168B1F1804FDA
:102240000DD100BF0649C96941F00101044AD161BD
:102250001146C96901F00101009100BF00BF08BD2E
:102260000010024070B504460D46164600BF94F8B3
:102270003C00012801D1022070BD012084F83C00FF
:1022800000BF022084F83D0036B1042E1BD0082E7A
:1022900031D00C2E5ED145E02946206800F0D0FEFA
:1022A0002068806940F008002168886120688069A2
:1022B00020F004002168886120688069296908434A
:1022C0002168886147E02946206800F0E9FE20681F
:1022D000806940F40060216888612068806920F48A
:1022E00080602168886120688069296940EA01204E
:1022F000216888612FE02946206800F005FF2068EA
:10230000C06940F008002168C8612068C06920F0F9
:1023100004002168C8612068C069296908432168F0
:10232000C86118E02946206800F022FF2068C069D3
:1023300040F400602168C8612068C06920F48060B2
:102340002168C8612068C069296940EA01202168C4
:10235000C86100E000BF00BF012084F83D0000BF5D
:10236000002084F83C0000BF00BF85E710B504469C
:102370000CB9012010BD94F83D0028B9002084F864
:102380003C00204600F00CF8022084F83D00211D9E
:10239000206800F01BFE012084F83D000020E9E7E2
:1023A00038B504460D492068884215D100BF0C4855
:1023B000806940F400600A4988610846806900F439
:1023C0000060009000BF00BF002211461920FEF7F8
:1023D00069FE1920FEF756FE38BD0000002C0140B2
:1023E000001002407047000010B504462D480078E8
:1023F000D8B92D48007802F03BFA012211022B488F
:10240000FEF723FB012001E0411C88B20F28FBDB13
:1024100000224FF480712548FEF717FB2248007810
:1024200001F0E8FE2049087010BD1E480078012820
:1024300036D11D48007802F01BFA1D4801681D487E
:10244000006802F05AFA0A234FF4907218480168A3
:102450001948FFF737FC012211021448FEF7F5FA7C
:10246000012210211148FEF7F0FA012001E0411C81
:1024700088B20F28FBDB002210210C48FEF7E5FA9A
:1024800000224FF480710948FEF7DFFA0020054969
:1024900008700548007801F0ADFE03490870C3E7F5
:1024A00000BFC1E70C0000200D0000200008014023
:1024B000140000201000002060010020704710B5BB
:1024C00004460CB9012010BDA06900B100E000BFB6
:1024D00094F8390028B9002084F83800204600F02C
:1024E00027F8242084F839002068C06820F40050C0
:1024F0002168C860204600F05FFE2068006920F473
:102500009040216808612068406920F02A00216815
:1025100048612068C06840F400502168C86000200D
:10252000E063202084F8390084F83A000020CAE7EC
:1025300010B586B0044600200290039004900590E8
:102540001A49206888422ED100BF1948806940F49A
:102550008040174988610846806900F480400190F6
:1025600000BF00BF00BF0846806940F004008861DA
:102570000846806900F00400019000BF00BF4815C4
:102580000290022003900320059002A90948FEF75B
:10259000C5F84FF48060029000200390049002A9D7
:1025A0000448FEF7BBF806B010BD0000003801403B
:1025B00000100240000801402DE9F84304460D4692
:1025C00016461F464FF0000994F83A00202860D1C3
:1025D00005B116B90120BDE8F88300BF94F83800B2
:1025E000012801D10220F6E7012084F8380000BF5D
:1025F0000020E063222084F83A00FEF72DFA81469D
:10260000A685E68539E0E08D401EE085A068B0F53E
:10261000805F1BD14B46002220212046009700F00E
:102620009BFE08B10320D6E7A846206938B9206888
:102630004068C0F30800A8F80000AD1C1DE0206849
:102640004068C0B2A8F800006D1C16E04B4600229E
:1026500020212046009700F07FFE08B10320BAE752
:10266000206920B92068406805F8010B05E0206862
:10267000406800F07F0005F8010BE08D0028C2D112
:10268000202084F83A0000BF002084F8380000BF02
:10269000A1E702209FE72DE9F84304460D461646C0
:1026A0001F464FF0000994F8390020285CD105B18D
:1026B00016B90120BDE8F88300BF94F8380001285E
:1026C00001D10220F6E7012084F8380000BF002085
:1026D000E063212084F83900FEF7BEF98146A68424
:1026E000E6842BE0E08C401EE084A068B0F5805FBB
:1026F00016D14B46002280212046009700F02CFE88
:1027000008B10320D6E7A846B8F80000C0F30800D7
:1027100021684860206908B9AD1C0FE06D1C0DE010
:102720004B46002280212046009700F015FE08B19C
:102730000320BFE715F8010B21684860E08C0028F2
:10274000D0D14B46002240212046009700F004FEE5
:1027500008B10320AEE7202084F8390000BF002034
:1027600084F8380000BFA5E70220A3E700BFFEE71A
:10277000014608684069C0F38020B0B16FF4806002
:102780000A68506100200863202081F83D00002085
:1027900081F83E00086C40F00400086400BF00208F
:1027A00081F83C0000BF012070470020FCE70000DA
:1027B0002DE9F84304460D4617469846E66A082E6A
:1027C00004D0012E02D016F5803F06D120680068A3
:1027D00040F480702168086008E0206B122805D161
:1027E0002068006840F48070216808603B46002241
:1027F0004FF001112046CDF8008000F05DF810B1D7
:102800000120BDE8F8832069B0F5804F04D105F0C0
:10281000FE002168086112E005F44070F02141EAF1
:10282000E0102168086143463A460B49204600F013
:1028300086F808B10120E4E7E8B221680861434660
:102840003A460549891F204600F079F808B1012071
:10285000D7E70020D5E700000800010070B5044666
:102860000D46164620E02046FFF782FF08B1012002
:1028700070BD681CC0B1FEF7EFF8801BA84200D8FD
:1028800095B900202063202084F83D00002084F8C2
:102890003E00206C40F02000206400BF002084F83F
:1028A0003C0000BF0120E3E720684069C0F38000DE
:1028B0000028D8D00020DBE72DE9F04104460D4682
:1028C00017461E46DDF818801CE0701CD0B1FEF7DC
:1028D000C3F8A0EB0800B04200D89EB900202063E6
:1028E000202084F83D00002084F83E00206C40F059
:1028F0002000206400BF002084F83C0000BF0120BD
:10290000BDE8F081C5F3074001280AD1206840697D
:10291000A9B20840A9B2884201D101200BE00020F1
:1029200009E020688069A9B20840A9B2884201D1B3
:10293000012000E00020B842C7D00020E0E72DE9E8
:10294000F04104460D4616461F463DE020684069AA
:10295000C0F38020E8B12068006840F4007021686E
:1029600008606FF4806021684861002020632020A7
:1029700084F83D00002084F83E00206C40F0040004
:10298000206400BF002084F83C0000BF0120BDE8A7
:10299000F081701CC0B1FEF75FF8C01BB04200D8D8
:1029A00096B900202063202084F83D00002084F8A0
:1029B0003E00206C40F02000206400BF002084F81E
:1029C0003C0000BF0120E2E7C5F3074001280AD11F
:1029D00020684069A9B20840A9B2884201D101200B
:1029E0000BE0002009E020688069A9B20840A9B284
:1029F000884201D1012000E000200028A6D000205C
:102A0000C5E770B504460D46164620E02046FFF7A0
:102A1000AFFE08B1012070BD681CC0B1FEF71CF804
:102A2000801BA84200D895B900202063202084F89C
:102A30003D00002084F83E00206C40F0200020641F
:102A400000BF002084F83C0000BF0120E3E72068BD
:102A50004069C0F3C0100028D8D00020DBE7000098
:102A600000B585B00020019002900390049000BF53
:102A70003948806940F020003749886108468069FC
:102A800000F02000009000BF00BF00BF0846806932
:102A900040F0040088610846806900F0040000905E
:102AA00000BF00BF00BF0846806940F00800886191
:102AB0000846806900F00800009000BF00BF0022B7
:102AC00048F210112548FDF7C0FF00224FF60371B0
:102AD0002348FDF7BAFF48F2101001900120029040
:102AE000002003900220049001A91C48FDF716FE67
:102AF0004FF6037001900120029000200390022005
:102B0000049001A91648FDF709FE08200190002055
:102B100002900120039001A91148FDF7FFFD30202C
:102B20000190104802900020039001A90C48FDF785
:102B3000F5FD002202210A20FEF7B4FA0A20FEF772
:102B4000A1FA002202211720FEF7ACFA1720FEF7A7
:102B500099FA05B000BD00000010024000080140D5
:102B6000000C01400000211010B50B480B49086013
:102B70000B484860002109488160C1604FF48041E2
:102B80000161002141618161C1610162FDF76AFF5C
:102B900008B1FDF79EFD10BD00540040F800002074
:102BA000A086010010B50848084908604FF0FF30C2
:102BB00048604FF4807105488160FEF755FF08B109
:102BC000FDF787FD10BD0000002800404C010020EB
:102BD00010B50E480E4908604FF48270486000211D
:102BE0000B488160C160016141614FF400718161F6
:102BF0000021C1610162416281620A21C162FEF766
:102C0000DBFF08B1FDF765FD10BD0000003001409D
:102C10006001002000B591B000200F9010901C21A1
:102C200008A8FDF7A8FA20216846FDF7A4FA234872
:102C3000234908600020486000212148816043F654
:102C4000FF71C1600021016141618161FFF78EFB6D
:102C500008B1FDF73EFD20200F90002010900FA935
:102C60001748FFF756F908B1FDF733FD60200890CB
:102C7000002009900A900C900D900E900C2208A94B
:102C80000F48FFF7EFFA08B1FDF723FD0020009091
:102C900001900290039004904FF4005005900020A2
:102CA000079069460648FFF7FAF808B1FDF711FDED
:102CB0000348FFF725FA11B000BD0000002C0140C9
:102CC000B801002000B589B00020079008901C21B1
:102CD0006846FDF750FA4FF0804017490860002021
:102CE00048600021144881600121C1600021016118
:102CF0008161FFF786FA08B1FDF7EBFC0020079031
:102D0000089007A90C48FFF704F908B1FDF7E1FCAA
:102D100030200090012001900020029004900422B5
:102D200069460548FFF732FA08B1FDF7D2FC0248C0
:102D3000FFF7E6F909B000BDF801002010B50B4817
:102D40000B4908604FF4E130486000210848816079
:102D5000C16001610C21416100218161C161FFF706
:102D6000AEFB08B1FDF7B5FC10BD00000038014016
:102D70003802002000BFFEE77047704708B50849D9
:102D80000968C9084FF47A72B1FBF2F1414300912E
:102D900000BF00BF00994A1E00920029F9D108BD6A
:102DA000F400002070B504460025FDF755FE0546E9
:102DB00007E0FDF751FE401BB0F57A7F01D90320F3
:102DC00070BD2068406800F020000028F1D0206825
:102DD000406840F01000216848600020F0E770B5BE
:102DE000044600252068406820F0100021684860F3
:102DF000FDF732FE054607E0FDF72EFE401BB0F55D
:102E00007A7F01D9032070BD2068406800F020005F
:102E10000028F1D00020F6E7F8B504460D46164626
:102E20002B46002280212046009600F009F828B1A8
:102E3000606D40F0200060650320F8BD0020FCE7D5
:102E40002DE9F04104460E4617461D46DDF8188070
:102E50003EE0681CD8B3FDF7FFFDA0EB0800A842D8
:102E600000D2A5BB2068406820F0E00021684860DF
:102E70006068B0F5827F0DD1A068B0F5004F03D037
:102E8000A068B0F5806F05D12068006820F0400090
:102E900021680860A06AB0F5005F0DD100BF20680E
:102EA000006820F40050216808602068006840F441
:102EB00000502168086000BF012084F8510000BF65
:102EC000002084F8500000BF0320BDE8F081FFE738
:102ED000206880683040B04201D1012000E000202D
:102EE000B842B6D10020F0E7704710B5FEF75AF8A7
:102EF00010BD00B593B0282109A8FDF73CF91421B5
:102F000004A8FDF738F9002000900190029003908A
:102F1000092009904FF480300A9001200F90002082
:102F2000109009A8FEF76EFB08B1FDF7D2FB0F2049
:102F30000490012005900020069007900890002141
:102F400004A8FEF729FA08B1FDF7C3FB01200090A1
:102F5000400201906846FEF787F908B1FDF7B9FB1A
:102F600013B000BD1148006840F001000F4908602F
:102F7000084640680E4908400C4948600846006809
:102F80000C490840094908600846006820F4802080
:102F900008600846406820F4FE0048604FF41F00B7
:102FA0008860C803044908607047000000100240B0
:102FB0000000FFF8FFFFF6FE08ED00E010B5024844
:102FC000FEF7D2FF10BD0000B801002010B5026866
:102FD000184B984208D0B0F1804F05D0164B98425C
:102FE00002D0164B984203D122F070024B681A436C
:102FF000104B984208D0B0F1804F05D00E4B98424C
:1030000002D00E4B984203D122F44072CB681A438F
:1030100022F080034C6943EA040202608B68C362B9
:103020000B688362034B984201D10B690363012350
:10303000436110BD002C0140000400400008004026
:1030400030B5056A25F001050562026A43688469A6
:1030500024F0700424F003040D682C4322F00202D3
:103060008D682A430D4DA84206D100BF22F0080208
:10307000CD682A4322F00402084DA84207D123F468
:10308000807323F400734D692B438D692B43436098
:1030900084614D684563026230BD0000002C014030
:1030A00030B5056A25F010050562026A4368846937
:1030B00024F4E04424F440740D6844EA052422F02A
:1030C00020028D6842EA05120E4DA84207D100BFCA
:1030D00022F08002CD6842EA051222F04002094D3A
:1030E000A84209D123F4806323F400634D6943EAC5
:1030F00085038D6943EA8503436084614D68856378
:10310000026230BD002C014030B5056A25F480759F
:103110000562026A4368C46924F0700424F0030461
:103120000D682C4322F400728D6842EA05220F4D8F
:10313000A84207D100BF22F40062CD6842EA05220E
:1031400022F48062094DA84209D123F4805323F46C
:1031500000534D6943EA05138D6943EA0513436043
:10316000C4614D68C563026230BD0000002C01409F
:1031700030B5056A25F480550562036A4468C26962
:1031800022F4E04222F440720D6842EA052223F460
:1031900000538D6843EA0533064DA84204D124F458
:1031A00080444D6944EA85144460C2614D680564F9
:1031B000036230BD002C014070B5044621680969E6
:1031C00021F44051E2681143226811612269A1682B
:1031D0001143626941EA02052168C96841F20C6243
:1031E000914329432268D1602168496921F44071E3
:1031F000A269114322685161564A2168914254D113
:10320000FEF7A6F900EBC00101EB00116268920025
:10321000B1FBF2F100EBC00202EB001263689B000D
:10322000B2FBF3F26423B2FBF3F202EBC20303EB53
:103230000212A1EB8201322202EB01116422B1FBE6
:10324000F2F101F0F00100EBC00202EB0012636842
:103250009B00B2FBF3F26423B2FBF3F201EB021228
:1032600000EBC00101EB001163689B00B1FBF3F1BF
:1032700000EBC00303EB00136668B600B3FBF6F384
:103280006426B3FBF6F303EBC30606EB0313A1EBD3
:103290008301322303EB01116423B1FBF3F101F04D
:1032A0000F0111442268916053E0FEF741F900EBF1
:1032B000C00101EB001162689200B1FBF2F100EB7A
:1032C000C00202EB001263689B00B2FBF3F26423BE
:1032D000B2FBF3F202EBC20303EB0212A1EB820199
:1032E000322202EB01116422B1FBF2F101F0F00194
:1032F00000EBC00202EB001263689B00B2FBF3F22A
:103300006423B2FBF3F201EB021200EBC00101EB0C
:10331000001163689B00B1FBF3F100EBC00303EB0A
:1033200000136668B600B3FBF6F36426B3FBF6F34E
:1033300003EBC30606EB0313A1EB8301322303EB7C
:1033400001116423B1FBF3F101F00F011144226874
:10335000916070BD003801402DE9F04104460D46F2
:1033600017469846069E21E0701CF8B12EB1FDF775
:1033700073FBA0EB0800B04218D92068C06820F4A5
:10338000D0702168C8602068406920F00100216881
:103390004861202084F8390084F83A0000BF0020FA
:1033A00084F8380000BF0320BDE8F0812068006881
:1033B0002840A84201D1012000E00020B842D3D02B
:1033C0000020F1E700BFFEE737B514460846064B7C
:1033D0006A46214600F0F8F804466946002000F0ED
:1033E0008AFC20463EBD0000F73C00080248006809
:1033F000C0F30220704700000CED00E010B500287B
:1034000004DB0A07130E054A135406E00A07140EDC
:10341000034A00F00F031B1FD45410BD00E400E06A
:1034200018ED00E002E008C8121F08C1002AFAD116
:1034300070477047002001E001C1121F002AFBD134
:10344000704700002DE9FF5F82B00021DDE9043004
:10345000020DDDF840B0034318D044F61050A2F23C
:10346000FF3242431514119801281FD0A5EB0B0021
:10347000401C5FEA000A4FF000064E4FDFF838911B
:10348000B046504615D5CAF1000413E01198012446
:103490004AA3012801D16FEA0B010298119AC0E9F1
:1034A0000031C0E9024206B0BDE8F09FCBF1000058
:1034B000DFE704460021404A491842EB0450CDE9B9
:1034C000001012E0E00707D032463B46404649462E
:1034D000FCF751FF8046894632463B461046194666
:1034E000FCF749FF06460F466410002CEAD1DDE9DF
:1034F0000401DDE90023BAF1000F06DAFCF73BFF17
:1035000042464B46FCF737FF05E0FCF7A6FF424674
:103510004B46FCF7A2FF04460E460022284BFDF75F
:1035200023F803D84FF0FF30014607E00022254B77
:1035300020463146FCF778FEFCF7FEFF102409E038
:10354000002C0ADB0A220023FCF73DFE039B3032ED
:103550001A55641E50EA0102F2D1641C039AC4F1A8
:1035600011031444119A012A03D0012208430DD1FA
:103570000AE0084304D000204FF0110B119072E7CD
:10358000A3EB0B056D1E0DE05B4504DD4FF0000263
:1035900005F1010504E003DA4FF00002A5F1010591
:1035A000002AECD002981199C0E90231C0E9004527
:1035B00079E70000000014400000F03F30000000F8
:1035C0000000F0430000E03F2DE9FF4F95B09B461F
:1035D0008946064600250FE2252877D10024274694
:1035E000F84A0121059400E0044316F8013F203B0E
:1035F00001FA03F01042F7D130782A2811D06FF089
:103600002F033078A0F13002092A16D8059A44F029
:10361000020402EB820203EB42021044761C059086
:10362000EFE759F8042B0592002A03DA504244F4DC
:103630000054059044F00204761C30782E2816D1F0
:1036400016F8010F44F004042A280DD06FF02F0261
:103650003078A0F13003092B09D807EB870302EB80
:103660004303C718761CF3E759F8047B761C3078BF
:103670006C280FD006DC4C2817D068280DD06A289B
:1036800014D104E0742810D07A280FD10DE044F44E
:1036900000140AE044F4801401E044F44014727809
:1036A000824202D104F58014761C761C307866289C
:1036B0000BD013DC582877D009DC002875D04528BA
:1036C000F6D04628F4D047281AD19DE118E06328A7
:1036D00035D0642879D0652812D195E1702873D04F
:1036E00008DC6728F1D069286FD06E280DD06F28CC
:1036F00006D1B5E073282CD0752875D0782874D001
:103700005A46179990476D1C75E1C4F30250022880
:1037100009D003280DD0D9F8001004280DD00D6071
:1037200009F1040967E1D9F80010EA17C1E900526C
:10373000F6E7D9F800100D80F2E70D70F0E719F800
:10374000041B8DF8001000208DF80100EA460120CE
:1037500003E059F804AB4FF0FF3061074FF0000170
:1037600002D40DE008F101018846B9420FDA804524
:10377000F8DB1AF808100029F4D108E008F101017B
:1037800088468142FADB1AF808100029F6D105981C
:103790005B46A0EB080721463846179A00F094FADA
:1037A000284400EB080507E04DE029E10DE01AF898
:1037B000010B5A4617999047B8F10108F7D25B46BA
:1037C00021463846179A13E142E00A220092C4F3D8
:1037D00002524FF0000A022A08D059F804CB032AFB
:1037E0004FEAEC710AD00DE029E02AE009F1070167
:1037F00021F00702F2E802C1914609E00FFA8CFCC1
:103800004FEAEC71042A03D14FFA8CFC4FEAEC71B9
:10381000002907DA0A460021DCF1000C61EB020105
:103820002D2202E0220504D52B228DF8042001224E
:1038300003E0E20701D02022F7E7904659E00A2191
:1038400002E010220DE010214FF0000A00910BE081
:1038500010224FF0000A44F004040827009203E00D
:1038600008224FF0000A0092C4F30252022A05D047
:1038700059F804CB0021032A08D009E009F1070117
:1038800021F00702F2E802C1914605E01FFA8CFC24
:10389000042A01D10CF0FF0C4FF00008220728D5B4
:1038A000702806D0009B83F0100353EA0A0305D06A
:1038B0000EE040228DF80420012208E05CEA0102BB
:1038C00006D030228DF804208DF8050002229046A3
:1038D000009B83F0080353EA0A030AD15CEA010261
:1038E00001D1620705D530228DF804204FF0010880
:1038F0007F1E582804D034A003900EA802900DE03B
:1039000036A0F9E753466046009AFCF75CFC844613
:103910000398825C0298401E029002705CEA0100EB
:10392000F0D1029806A9081A00F1200A600702D512
:1039300024F4803400E00127574502DDA7EB0A009C
:1039400000E0002000EB0A01009005984144401A75
:103950000590E00306D45B462146179A059800F0CF
:10396000B3F90544002706E001A85A46C05D17993F
:1039700090476D1C7F1C4745F6DBE0030CD55B468A
:103980002146179A059800F09FF9054404E030207D
:103990005A46179990476D1C0099481E00900029BF
:1039A000F5DC08E0029802995A460078491C029119
:1039B000179990476D1CBAF10001AAF1010AF1DCD8
:1039C00065E10000092801003031323334353637E3
:1039D000383961626364656600000000303132335B
:1039E00034353637383941424344454600000000FB
:1039F00000F058F90544761C307800287FF4ECADCF
:103A000019B02846BDE8F08F620700D4062709F1F7
:103A1000070222F0070CFCE80223E14603F000480D
:103A20005FEA080C02D00FF2702C0DE05FEA045C34
:103A300002D50FF2682C07E05FEAC47C02D00FF2D7
:103A4000602C01E0AFF2700C4FF0FF3823F0004320
:103A5000CDF850C065280CD006DC452809D0462892
:103A60001DD047283DD13DE0662818D067287ED17B
:103A700038E00021112F01DB112000E0781CCDE996
:103A8000000106A90EA8FFF7DDFCDDE90F010E9A83
:103A900003910021009207F1010A04914DE04FF0DB
:103AA00000400097CDE9011006A90EA8FFF7CAFC57
:103AB000DDE90F0203920E9B11990022DDF80CA0A4
:103AC0000093049211B9791C00EB010AB7EB0A00CC
:103AD00004D4C0F1FF3007F1010A0490AAEB0700FB
:103AE000019044E0012F00DA01270021112F01DDB0
:103AF000112000E03846CDE9000106A90EA8FFF725
:103B0000A1FCDDE90F010E9A0391002104910092BE
:103B1000BA4621070CD40399514500DA8A46BAF116
:103B2000010F05DD009AAAF10101515C302908D08E
:103B3000B84202DA10F1040F06DA0121CDE90110D2
:103B400015E0AAF10101E9E7002805DC0499014428
:103B50000491AAEB000102E0411C514500DD8A46B8
:103B60000499401A401C01904FF000400290200739
:103B700004D40198504501DBCDF8048000208DF875
:103B80004F0002980DF14F07B0F1004F25D02B20C8
:103B90000E9002984FF0020800280CDA4042029082
:103BA0002D200E9007E00A210298FCF7F6FA30313A
:103BB000029007F8011DB8F10001A8F10108F2DC3C
:103BC00002980028EFD1791E0E980870307800F026
:103BD000200040F0450007F8020D12A8C01B00F1BC
:103BE00007081498007800B1012000EB0A01019841
:103BF00001EBE07105984144401A401E0590E00336
:103C000006D45B462146179A059800F05DF80544F6
:103C10001498007818B15A46179990476D1CE00324
:103C200024D55B462146179A059800F04DF80544C7
:103C30001CE00498002807DBDDE90301884203DD6E
:103C40000098405C179901E0179930205A46904738
:103C5000049805F10105401C04900198401E019054
:103C600004D12E205A46179990476D1CBAF10001D5
:103C7000AAF1010ADDDC05E017F8010B5A46179995
:103C800090476D1CB8F10001A8F10108F4DC5B4617
:103C90002146179A0598ABE62D0000002B00000086
:103CA000200000002DE9F041044600251E4617467D
:103CB000880404D405E039462020B0476D1C641EFA
:103CC000F9D52846BDE8F0812DE9F04104460025EC
:103CD0001E469046C80301D5302700E020278804FF
:103CE00004D505E041463846B0476D1C641EF9D541
:103CF0002846BDE8F0810A68531C0B6010707047BD
:103D00002DE9F0410146002000244FF0004516E067
:103D100002EA040603EA05074FF0000886EA0806EF
:103D200087EA08073E4302D001260E5401E0002630
:103D30000E546D084FEA340400F10106F0B2402839
:103D4000E6DBBDE8F08170470146002027E0002255
:103D50000A54202803DA002301F1660213541428C0
:103D600003DA002301F1870213540A2815DA00232D
:103D700001F19B0213540A3213540A3213540A32CB
:103D800013540A3213540A3213540A3213540A32A7
:103D900013540A3213540A321354421CD0B264280A
:103DA000D5DB002281F8642081F8652081F8862027
:103DB0007047000010B5044694F8650000B910BDC6
:103DC00094F86500012808D10BA104F1660000F009
:103DD00004FA042084F886000BE094F865000328B8
:103DE00007D107A104F1660000F0F7F9072084F875
:103DF000860000BFE3E700004F4B0D0A0000000003
:103E00004572726F720D0A002DE9F04F91B00446B1
:103E1000894679A104F1870000F0C3F9B0B394F8A2
:103E20006400052802D011B0BDE8F08F04F19B00BA
:103E300000F0A4F9834604F1A50000F09FF910906A
:103E400004F1AF0000F09AF9804604F1B90000F0E7
:103E500095F9824604F1C30000F090F90546002070
:103E600052460346CDE900504046002100F06AF971
:103E700006460F4632463B46CDF800B048461099FC
:103E800000F091FA012084F86500B2E0FFE75FA13D
:103E900004F1870000F085F9F8B194F86400032874
:103EA00000D0C0E704F19B0000F068F9074604F178
:103EB000A50000F063F9804604F1AF0000F05EF960
:103EC000054600262A46334641464846009700F0FC
:103ED0006AFA012084F865008BE052A104F18700A2
:103EE00000F05FF940B394F86400042800D09AE72A
:103EF00004F1A50000F042F9804604F1AF0000F0A3
:103F00003DF9824604F1B90000F038F90546002079
:103F100052460346CDE900504046002100F012F918
:103F200006460F4632463B4604F19B00FFF70BFF67
:103F3000012084F865005CE03FA104F1870000F0F7
:103F400030F938B194F8640000B16CE7012084F8CE
:103F500065004EE03DA104F1870000F022F938B37E
:103F600094F86400032800D05DE704F19B0000F0A2
:103F700005F9824604F1A50000F000F94FF00008B1
:103F8000074604F1AF0000F0F9F8002605462A467E
:103F9000334601A8FFF7B4FE01A83A46434651460E
:103FA0000090484600F066F9012084F8650020E0A2
:103FB0002AA104F1870000F0F4F888B194F86400B5
:103FC000052800D02FE704F19B0000F0D7F8054644
:103FD00004F1A50000F0D2F8012084F8650008E0A3
:103FE0000FA104F1870000F0DCF810B9032084F879
:103FF000650000BF17E700007365745F73696E6743
:104000006C655F6C65645F72676200007365745F06
:1040100073696E676C655F6C65645F636F6C6F720C
:1040200000000000636F6C6F725F646566696E69A3
:1040300074696F6E00000000636F6C6F725F64657F
:1040400066696E6974696F6E3F0000007365745F26
:104050006C79725F636F6C6F720000007365745FE0
:104060006C79725F7267620030B500210023002214
:10407000047804B930BD56E0445C202C04D14C1CBB
:10408000E1B2541CE2B2002322B9455C00F187047E
:10409000E55444E0012A04D1455C00F19B04E55459
:1040A0003DE0022A04D1455C00F1A504E55436E068
:1040B000032A04D1455C00F1AF04E5542FE0042A43
:1040C00004D1455C00F1B904E55428E0052A04D187
:1040D000455C00F1C304E55421E0062A04D1455CA7
:1040E00000F1CD04E5541AE0072A04D1455C00F143
:1040F000D704E55413E0082A04D1455C00F1E1043B
:10410000E5540CE0092A04D1455C00F1EB04E554C8
:1041100005E00A2A03D1455C00F1F504E5544C1C86
:10412000E1B25C1CE3B2642908DA445C0D2C05D0D2
:10413000445C0A2C02D0445C002C9DD180F86420A1
:1041400000BF97E72DE9F04304460D4616461F468B
:10415000DDE9078922432B43180440EA1243120485
:1041600042EA080243EA0903180440EA124312042F
:1041700032433B4310461946BDE8F08330B5024652
:1041800013460021002008E05C5C00EB800504EB96
:104190004504303CE0B24C1CE1B25C5C002CF3D135
:1041A00030BDF0B504460D4622462B4600200021C6
:1041B00007E0565C5F5CBE4202D14E1CF1B200E0EB
:1041C000F0BD565C16B15E5C002EF2D1565C16B99D
:1041D0005E5C06B9012000BFF2E70246002003E062
:1041E0000B5C1354431CD8B2202802DA0B5C002B62
:1041F000F6D1704710B5044624B94FF480711C48BD
:10420000FCF71CFC012C03D161021948FCF716FCD9
:10421000022C03D161021648FCF710FC032C04D1D8
:104220004FF400611248FCF709FC042C03D1A102F1
:104230000F48FCF703FC052C04D14FF400510C4847
:10424000FCF7FCFB062C04D14FF480410848FCF736
:10425000F5FB072C04D14FF400410548FCF7EEFBB9
:10426000601C84B2082C00D10024204610BD000040
:10427000000C01402DE9F041E4B004460F4615461C
:104280001E46DDF8A8816FB94FF4BE7204F110012B
:10429000684660ABA3E86001FBF754FF94E80F00A9
:1042A00000F00FFA012F0FD14FF4BE7204F5CE715A
:1042B000684660ABA3E86001FBF744FF04F5C070FB
:1042C0000C300FC800F0FDF9022F0FD14FF4BE7271
:1042D00004F54A71684660ABA3E86001FBF732FF62
:1042E00004F5407018300FC800F0EBF9032F0FD120
:1042F0004FF4BE7204F2B441684660ABA3E86001BB
:10430000FBF720FF04F5906024300FC800F0D9F9C6
:10431000042F0FD14FF4BE7204F5C861684660AB3C
:10432000A3E86001FBF70EFF04F5C06030300FC852
:1043300000F0C7F9052F0FD14FF4BE7204F2CC7113
:10434000684660ABA3E86001FBF7FCFE04F5F06093
:104350003C300FC800F0B5F9062F0FD14FF4BE72F4
:1043600004F65811684660ABA3E86001FBF7EAFE6B
:1043700004F5106048300FC800F0A3F9072F0FD1E3
:104380004FF4BE7204F6E421684660ABA3E8600116
:10439000FBF7D8FE04F5286054300FC800F091F9FF
:1043A00064B0BDE8F0812DE9F041E4B004460F4669
:1043B00015461E46DDF8A88177B94FF4BE7204F1A8
:1043C0001001684660ABA3E86001FBF7BBFE94E810
:1043D0000F0000F094F975E0012F0ED14FF4BE727A
:1043E00004F11001684660ABA3E86001FBF7AAFE88
:1043F00094E80F0000F083F964E0022F0ED14FF42F
:10440000BE7204F11001684660ABA3E86001FBF7DF
:1044100099FE94E80F0000F072F953E0032F0ED1DB
:104420004FF4BE7204F11001684660ABA3E860016E
:10443000FBF788FE94E80F0000F061F942E0042FDA
:104440000ED14FF4BE7204F11001684660ABA3E8D0
:104450006001FBF777FE94E80F0000F050F931E0BF
:10446000052F0ED14FF4BE7204F11001684660AB07
:10447000A3E86001FBF766FE94E80F0000F03FF947
:1044800020E0062F0ED14FF4BE7204F110016846F1
:1044900060ABA3E86001FBF755FE94E80F0000F065
:1044A0002EF90FE0072F0DD14FF4BE7204F1100169
:1044B000684660ABA3E86001FBF744FE94E80F0098
:1044C00000F01DF964B0BDE8F08110B50021084688
:1044D00000F0D6F810BD10B5012000F085F80320DB
:1044E000FCF7F8F810BD000010B504463220FCF7C8
:1044F000F1F82B4804604FF4FA7305224E2100684E
:10450000FCF78CFB70B14FF4FA7305227E2124482E
:104510000068FCF783FB08B1002010BD7E20214914
:10452000087002E04E201F4908702D20FCF7D2F8D9
:10453000302000F059F80520FCF7CCF8302000F0CE
:1045400053F80120FCF7C6F8302000F04DF80820A1
:10455000FCF7C0F8202000F047F80820FCF7BAF874
:10456000282000F041F80120FCF7B4F8082000F002
:104570003BF80120FCF7AEF8012000F035F80320ED
:10458000FCF7A8F8062000F02FF80120FCF7A2F8AD
:104590000C2000F029F80320FCF79CF80120BCE770
:1045A000E0000020E40000200FB410B586B009A898
:1045B000009001A8009A0899FEF706FF00200090DD
:1045C000002405E001A9085D00F034F8601CC4B2C5
:1045D00001A8FBF7DBFDA04201D9142CF2DB06B0E9
:1045E00010BC5DF814FB00007CB50446F02000EA26
:1045F000041504F0F00646F00C008DF8040046F0B7
:1046000008008DF8050045F00C008DF8060045F017
:1046100008008DF80700C820042301AA0090034871
:10462000017803480068FCF7CBFB7CBDE400002068
:10463000E00000207CB50446F02000EA041504F0F8
:10464000F00646F00D008DF8040046F009008DF8E4
:10465000050045F00D008DF8060045F009008DF8C5
:104660000700C820042301AA0090034801780348EA
:104670000068FCF7A5FB7CBDE4000020E000002002
:1046800070B504460E4606F00F0524B945F08005C6
:104690002846FFF7A9FF012C04D145F0C0052846A4
:1046A000FFF7A2FF022C04D145F094052846FFF73E
:1046B0009BFF032C04D145F0D4052846FFF794FF57
:1046C00070BD0FB4F0B569AC70CCA9B2200C40EA53
:1046D000054082B2A3B200200CE0375C012F08D164
:1046E000259F27F81010469F27F81020679F27F86E
:1046F0001030401C4028F0DBF0BC5DF814FB0FB418
:10470000F0B569AC70CCA8B2230C43EA054399B26A
:10471000A2B2259B23F81600469B23F81610679B30
:1047200023F81620F0BC5DF814FB0000FCF746FCF3
:10473000FEF7DFFBFEF794F9FEF716FAFEF732FA02
:10474000FEF746FAFEF766FAFEF7BCFAFEF7F6FA4F
:1047500000224FF400413948FCF777F900224FF46A
:1047600080413648FCF771F900224FF4005133487C
:10477000FCF76BF900224FF480513048FCF765F9E3
:1047800000224FF400612D48FCF75FF900224FF43E
:1047900080612A48FCF759F900224FF4007127483C
:1047A000FCF753F900224FF480712448FCF74DF9CF
:1047B0002348FFF799FEFFF78EFEFFF786FE21A044
:1047C000FFF7F2FE0122D1031C48FCF73EF9214815
:1047D000FDF7F2F92048006800F084F801201F4935
:1047E000087029E04FF4FA7364221D491D48FDF753
:1047F000E3FE1D480068FFF737FC1C4801681A48B3
:104800000068FFF701FB18480068FFF7D3FA144867
:1048100090F8650048B1124890F886204FF4FA737A
:1048200000F166010F48FDF736FF0F480068FFF7FB
:104830008BFA0A20FBF74EFFD4E70000000C014082
:10484000F8000020385E33205247422042656769F5
:104850006E21000060010020100000200C000020EC
:10486000FC11002038020020DC000020D8000020CD
:1048700010B5044624B94FF400411948FCF7DEF89E
:10488000012C03D121021648FCF7D8F8022C03D1E1
:1048900021021348FCF7D2F8032C04D14FF48061B5
:1048A0000F48FCF7CBF8042C03D161020C48FCF74D
:1048B000C5F8052C04D14FF480510948FCF7BEF827
:1048C000062C04D14FF400510548FCF7B7F8072C2B
:1048D00004D14FF480410248FCF7B0F810BD00004D
:1048E000000C01400146002003E0002221F81020C6
:1048F000401CB0F5907FF8DB704770B502460B4660
:1049000000200021002425E024B1012C0AD0022C33
:104910001FD116E032F81150C5F307151D54401C85
:10492000641C16E032F81150F02606EA05154E1CFC
:1049300032F81660C6F3032635431D54401C641C30
:1049400007E04D1C12F815501D54401C891C002412
:1049500000BF00BFB0F5907FD6DB70BD0000000047
:10496000000000000102030406070809000000001F
:10497000010203049449000800000020F800000030
:10498000243400088C4A0008F80000200832000097
:1049900034340008000000000000000000000000A7
:1049A0000000000078020020F8030020B2B5A0A3A8
:1049B000A6919497BDBAAFACA99E9B98828570735F
:1049C000766164678D8A7F7C796E6B68525540434F
:1049D000463134375D5A4F4C493E3B38222510133F
:1049E000160104072D2A1F1C190E0B08B1B4B7A21B
:1049F000A5909396BEBBB8ADAA9F9C9981848772FF
:104A0000756063668E8B887D7A6F6C6951545742EE
:104A1000453033365E5B584D4A3F3C3921242712DE
:104A2000150003062E2B281D1A0F0C09B0B3B6A1D2
:104A3000A4A79295BFBCB9AEABA89D9A808386719E
:104A4000747762658F8C897E7B786D6A505356418E
:104A5000444732355F5C594E4B483D3A202326117E
:104A6000141702052F2C291E1B180D0A9C05002067
:104A7000FC11002000000000000000000000000009
:0C4A800010000000010000000024F40001
:04000005080000ED02
:00000001FF
