:020000040800F2
:1000000020330020010100081D300008112A0008DB
:1000100019300008B9060008013800080000000087
:100020000000000000000000000000008D3100080A
:10003000BD060008000000001F3000088F310008D6
:100040001B0100081B0100081B0100081B01000820
:100050001B0100081B0100081B0100081B01000810
:100060001B0100081B010008BF0600081B01000857
:100070001B0100081B0100081B0100081B010008F0
:100080001B0100081B0100081B0100081B010008E0
:100090001B0100081B0100081B010008C90600081D
:1000A0001B010008613200081B0100081B01000849
:1000B0001B0100081B0100081B0100081B010008B0
:1000C0001B0100081B0100081B0100081B010008A0
:1000D0001B010008F13700081B0100081B01000884
:1000E0001B0100081B0100081B010008DFF80CD0F1
:1000F00000F052FA00480047B54B000820330020BA
:100100000648804706480047FEE7FEE7FEE7FEE7B1
:10011000FEE7FEE7FEE7FEE7FEE7FEE7093200083E
:10012000ED000008202A04DB203A21FA02F0002129
:10013000704721FA02F3D040C2F1200291400843F7
:100140001946704740EA01039B0703D009E008C93C
:10015000121F08C0042AFAD203E011F8013B00F88C
:10016000013B521EF9D27047D2B201E000F8012BD8
:10017000491EFBD270470022F6E710B513460A4627
:1001800004461946FFF7F0FF204610BD421C10F848
:10019000011B0029FBD1801A704730B50B46014680
:1001A00000202022012409E021FA02F59D4205D316
:1001B00003FA02F5491B04FA02F52844151EA2F1C0
:1001C0000102F1DC30BD2DE9F05F054600209246CA
:1001D0009B4688460646814640241BE02846414609
:1001E00047462246FFF79EFF53465A46C01A9141A2
:1001F00010D311461846224600F0E0F92D1A67EB9D
:1002000001084F4622460120002100F0D7F917EBE4
:1002100000094E41201EA4F10104DFDC48463146AE
:100220002A464346BDE8F09F2DE9FE4F804681EA0D
:100230000300C00F0C46009021F0004123F0004560
:10024000B8EB0200A94105D24046214690461C4623
:100250000B46024623F00040104347D0270DC7F35A
:100260000A00C3F30A510290401A019040286BDA49
:10027000C3F3130040F4801B0098924620B1002382
:10028000D2EB030A63EB0B0B01985946C0F1400215
:10029000504600F093F906460D4650465946019ADD
:1002A00000F09BF910EB08006141002487EA11522D
:1002B00084EAE7731A4340D0009A62B3019A012A94
:1002C0004FEA075215DC001B61EB02014FF00042C0
:1002D00002EA0752CDE90042001C41F58011324686
:1002E0002B4600F09BF903B0BDE8F08F4046214655
:1002F000F9E7001B61EB0201001C41F580130018B7
:100300005B412018A2F5001747EB030140EAD570C6
:10031000B6196D4111E06D084FEA360645EAC07521
:100320004FEA0752001B61EB0201001C41F58011EE
:1003300049084FEA30000019514132462B4603B0BC
:10034000BDE8F04F00F05BB90098012240000023A7
:10035000D0EB020263EBE073009821464FEAE074B1
:10036000B8EB000061EB0401E9E783F000435BE7D1
:1003700081F0004158E72DE9FE4F81EA030404F0C3
:10038000004421F0004100944FF0000B23F00043A3
:1003900050EA01045ED052EA03045BD0C3F30A546E
:1003A000C1F30A552C44A4F2F3340194A0FB025487
:1003B000C1F3130141F48011C3F3130343F4801319
:1003C00001FB024400FB034E840A970A44EA81546D
:1003D00047EA8357A4FB076802958D0A05FB07854A
:1003E0004FEA932C04FB0C542705029D4FEA065854
:1003F00047EA1637B5EB08056EEB070C870E920E31
:1004000047EA811742EA8312A7FB0201B6EB0B0110
:1004100064EB00042B0D43EA0C335E1844EB1C50D4
:10042000DA465146E7FB0201C5F313044FEA0B33EA
:1004300043EA14534FEA0432019C43EA0603A4F151
:100440000C040294009CCDE900B400F0E7F803B07E
:10045000BDE8F08F00200146F9E72DE9F04D81EA73
:10046000030404F0004B21F0004514464FF0000A4D
:1004700023F0004150EA050220D054EA01021DD0C9
:10048000C5F30A570246C5F31303C1F31300C1F3C2
:100490000A5640F4801543F48013A7EB0608101B9E
:1004A000D64608F2FD3873EB050002D308F10108C7
:1004B00001E092185B41B8F1000F03DA0020014619
:1004C000BDE8F08D00204FF48011064684460EE012
:1004D000171B73EB050705D3121B63EB05030643DC
:1004E0004CEA010C49084FEA300092185B4150EA8F
:1004F0000107EDD152EA030012D082EA040083EA38
:100500000501084305D0101BAB4106D20122002390
:1005100006E000224FF0004302E06FF001025310AA
:100520001AEB06004CEB085110EB0A0041EB0B01F3
:10053000BDE8F04D00F063B8C1F30A52C1F31301F6
:1005400040F2FF3341F480119A4202DA0020014662
:10055000704740F233439A42A2F2334202DC5242E5
:10056000FFF7E0BD00F02AB830B5041E71F10004B9
:1005700004DB4FF00044404264EB0101141E73F1B0
:10058000000405DB1C464FF00043524263EB0403BA
:10059000994208BF904230BD064C074D06E0E06826
:1005A00040F0010394E8070098471034AC42F6D3BA
:1005B000FFF7A0FDC84E0008E84E0008202A04DB23
:1005C000203A00FA02F1002070479140C2F1200366
:1005D00020FA03F3194390407047202A06DBCB171B
:1005E000203A41FA02F043EAE07306E041FA02F3EE
:1005F000D040C2F12002914008431946704710B51F
:10060000141E73F1000408DA401C41F10001921835
:100610005B411A4301D120F0010010BD2DE9F04DDE
:1006200092469B4611B1B1FA81F202E0B0FA80F233
:1006300020329046FFF7C2FF04460F4640EA0A0008
:1006400041EA0B0153465A46084313D0114653EA78
:10065000010019D0C8F140025046FFF763FD05467E
:100660000E46504659464246FFF7A8FF084305D0BC
:10067000012004E020463946BDE8F08D0020054306
:1006800046EAE0762C4337430A986305E40AA0EB78
:1006900008000022FD0A44EA47540A3002D500202F
:1006A0000146E9E7010510196941DDE9084500192E
:1006B0006941BDE8F04DA2E700BFFEE7704710B505
:1006C000102000F075F810BD10B5202000F070F873
:1006D00010BD704770B50446002594F8210002282B
:1006E00003D00420A063012548E02068006820F0C2
:1006F0000E00216808602068006820F00100216871
:1007000008601F492068884201D1012026E01C4969
:1007100014312068884201D110201FE01849283187
:100720002068884201D1801518E015493C312068C5
:10073000884201D1801411E011495031206888426B
:1007400002D14FF4803009E00D49643120688842BD
:1007500002D14FF4801001E04FF080700849083951
:100760004860012084F8210000BF002084F82000A8
:1007700000BF606B10B12046616B8847284670BD92
:100780000800024070B5044600F0BEF90646254652
:10079000681C10B104480078054400BF00F0B4F9AB
:1007A000801BA842FAD370BDF400002070470000FF
:1007B00010B5044604480068204020B10248046097
:1007C0002046FFF7F3FF10BD140401402DE9F84760
:1007D0000346002294466EE14FF0010808FA02F445
:1007E000D1F8008008EA0400A0427DD1DFF8DCA245
:1007F000D1F80480A8EB0A09D0453AD014DCB8F14E
:10080000030F50D009DCB8F1000F31D0B8F1010F5F
:100810001CD0B8F1020F49D120E0B8F1110F18D067
:10082000B8F1120F42D11EE0B9F5881F25D006DCC1
:10083000B9F5803F20D0B9F5801F37D11AE0B9F55E
:10084000001F18D0B9F5041F30D117E0D1F80CC043
:100850002DE0D1F80C8008F1040C28E0D1F80C80D0
:1008600008F1080C23E0D1F80C8008F10C0C1EE014
:1008700000BF00BF00BF00BF00BF00BFD1F80880AD
:10088000B8F1000F02D14FF0040C0BE0D1F8088052
:10089000B8F1010F03D14FF0080C1C6102E04FF0DA
:1008A000080C5C6103E04FF0000C00E000BF00BFEB
:1008B000FF2801D8984601E003F104084646FF28C6
:1008C00002D84FEA820803E0A2F108084FEA88083C
:1008D0004746D6F800804FF00F0909FA07F928EAD1
:1008E00009080CFA07F900E088E048EA0908C6F8A8
:1008F0000080D1F8048008F08058B8F1805F7DD185
:1009000000BFDFF8CC81D8F8188048F00108DFF884
:10091000C091C9F81880C846D8F8188008F00108B6
:10092000CDF8008000BF00BF4FEAB9384FEA920906
:1009300058F829504FEA82784FEA18794FF00F089B
:1009400008FA09F825EA0805DFF88881434502D14D
:100950004FF0000816E0DFF88081434502D14FF0E8
:1009600001080FE0DFF87481434502D14FF002081F
:1009700008E0DFF86C81434502D14FF0030801E045
:100980004FF004084FEA82794FEA197908FA09F81A
:1009900048EA0505DFF84C814FEA920948F82950EA
:1009A000D1F8048008F48038B8F5803F0AD1DFF828
:1009B0003881D8F8008048EA0008DFF82C91C9F89F
:1009C000008009E0DFF82081D8F8008028EA0008DC
:1009D000DFF81491C9F80080D1F8048008F40038D9
:1009E000B8F5003F10D1DFF8008108F10408D8F80D
:1009F000008048EA0008DFF8F09000E05AE009F1D2
:100A00000409C9F800800DE0DFF8DC8008F1040873
:100A1000D8F8008028EA0008DFF8CC9009F1040932
:100A2000C9F80080D1F8048008F48018B8F5801F58
:100A30000ED1DFF8B48008F10808D8F8008048EA41
:100A40000008DFF8A49009F10809C9F800800DE05A
:100A5000DFF8948008F10808D8F8008028EA000838
:100A6000DFF8849009F10809C9F80080D1F8048002
:100A700008F40018B8F5001F0ED1DFF86C8008F1FB
:100A80000C08D8F8008048EA0008DFF85C9009F10B
:100A90000C09C9F800800DE0DFF84C8008F10C0863
:100AA000D8F8008028EA0008DFF83C9009F10C092A
:100AB000C9F80080521CD1F8008028FA02F8B8F179
:100AC000000F7FF489AEBDE8F88700000000111028
:100AD0000010024000080140000C014000100140DD
:100AE000001401400800014000040140C2680A40AF
:100AF0000AB1416100E0016170470AB1016101E0A2
:100B00000B04036170470000014800687047000053
:100B1000EC00002070B504460CB9012070BD94F8BB
:100B20003D0028B9002084F83C00204600F058FA27
:100B3000242084F83D002068006820F0010021682E
:100B4000086000F04DFD05465C496068884206D8A3
:100B50005B48854201D2012007E0002005E05948AA
:100B6000854201D2012000E00020012800D1D5E714
:100B70005548B5FBF0F62068406820F03F00304350
:100B8000216848604D496068884201D8701C07E0C0
:100B90004FF4967070434FF47A71B0FBF1F0401C43
:100BA0002168096A21F03F0108432168086243492E
:100BB0006068884214D8681E61684900B0FBF1F093
:100BC000401CC0F30B00042801D204203DE0681E45
:100BD00061684900B0FBF1F0401CC0F30B0034E049
:100BE000A06838B9681E616801EB4101B0FBF1F003
:100BF000401C0AE0681E616801EBC10202EB0111B2
:100C0000B0FBF1F0401C40F48040C0F30B0008B989
:100C100001201AE0A06848B9681E616801EB410133
:100C2000B0FBF1F0401CC0F30B000CE0681E6168E3
:100C300001EBC10202EB0111B0FBF1F0401CC0F36B
:100C40000B0040F4804040F400402168C9694CF634
:100C5000FF72914308432168C861D4E90701084342
:100C60002168096821F0C001084321680860D4E9BF
:100C7000031008432168896848F2FF329143084312
:100C800021688860D4E9050108432168C96821F01A
:100C9000FF0108432168C8602068006840F0010037
:100CA0002168086000202064202084F83D00002096
:100CB000206384F83E0000BF30E70000A0860100FA
:100CC00080841E0000093D0040420F002DE9F84FCE
:100CD00004460F4690461E46FFF716FF05464FF0A6
:100CE000010994F83D0020287ED1192301225E4994
:100CF0002046009501F032FF10B10220BDE8F88FC8
:100D000000BF94F83C00012801D10220F6E7012041
:100D100084F83C0000BF2068006800F0010028B99A
:100D20002068006840F001002168086020680068C1
:100D300020F4006021680860242084F83D00002031
:100D400020644A48E06200BF2068006840F4807078
:100D500021680860334600224FF0011120460095BB
:100D600001F0FCFE08B10120C8E707F0FE00216891
:100D70000861FFF7C9FE054620684069C0F3400AD4
:100D800020684069C0F3802B10E0FFF7BDFE401BD8
:100D9000B04200D816B9A02084F83D002068406910
:100DA000C0F3400A20684069C0F3802B94F83D00EE
:100DB000A02805D0BAF1000F02D1BBF1000FE4D09A
:100DC000202084F83D0020684069C0F3400028B32B
:100DD0002068006840F400702168086000BF0020AF
:100DE00000902068406900E03BE000902068806946
:100DF000009000BF00BF192301221B492046009527
:100E000001F0ACFE08B1012078E7202084F83D0015
:100E100000BF002084F83C0000BF6FE72068006836
:100E200040F40070216808606FF4806021684861B8
:100E3000192301220C492046009501F08FFE08B1CC
:100E400001205BE709F10109C145FFF47DAF2020D6
:100E500084F83D0000BF002084F83C0000BF012062
:100E60004CE702204AE70000020010000000FFFFEC
:100E70002DE9F8430446894616461F46DDF82080D2
:100E8000FFF742FE054694F83D0020287ED1192345
:100E9000012251492046009501F060FE10B1022068
:100EA000BDE8F88300BF94F83C00012801D102207E
:100EB000F6E7012084F83C0000BF2068006800F0DD
:100EC000010028B92068006840F00100216808602E
:100ED0002068006820F4006021680860212084F800
:100EE0003D00102084F83E00002020646662678583
:100EF000608D20853948E0622B46424649462046AF
:100F000001F0A8FD08B10120CAE700BF0020009051
:100F100020684069009020688069009000BF00BF91
:100F200044E02A464146204601F0BDFE50B1206C07
:100F3000042805D12068006840F40070216808602A
:100F40000120ADE7606A007821680861606A401C92
:100F50006062608D401E6085208D401E2085206867
:100F60004069C0F3800070B1208D60B1606A007884
:100F700021680861606A401C6062608D401E608567
:100F8000208D401E20852A46414600E022E0204672
:100F900001F0B6FD50B1206C042805D1206800682E
:100FA00040F4007021680860012079E7208D002856
:100FB000B7D12068006840F40070216808602020E4
:100FC00084F83D00002084F83E0000BF84F83C0017
:100FD00000BF65E7022063E7020010000000FFFF8A
:100FE00010B586B00446002002900390049005904E
:100FF00015492068884225D100BF1448806940F017
:101000000800124988610846806900F008000190D4
:1010100000BF00BFC0200290122003900320059063
:1010200002A90B48FFF7D2FB00BF0848C06940F493
:1010300000100649C8610846C06900F4001001901C
:1010400000BF00BF06B010BD0054004000100240B9
:10105000000C01400348006803490978084401492D
:1010600008607047EC000020F400002010B508482C
:10107000006840F0100006490860032000F0A8F85E
:10108000002000F007F800F02BF8002010BD000051
:101090000020024070B504460E4800784FF47A7183
:1010A000B1FBF0F00C490968B1FBF0F5284600F0FF
:1010B00032FF08B1012070BD102C07D2002221465A
:1010C000501E00F047F80548046001E00120F2E7F7
:1010D0000020F0E7F4000020F8000020F0000020DD
:1010E00008B500BF1148806940F001000F498861D0
:1010F0000846806900F00100009000BF00BF00BFFB
:101100000846C06940F08050C8610846C06900F0D8
:101110008050009000BF00BF00BF0549486820F024
:10112000E06040F00070486000BF08BD0010024061
:101130000000014001460846002809DB00F01F03BB
:1011400001229A4043099B0003F1E023C3F80021E8
:1011500000BF70472DE9F05F80460D461646002718
:1011600002F062FB074639462A46334601F0070083
:10117000C0F1070ABAF1040F02D94FF0040A01E0E6
:10118000C0F1070AD14600F1040ABAF1070F02D2F2
:101190004FF0000A01E0A0F1030AD4464FF0010A23
:1011A0000AFA09FAAAF1010A0AEA020A0AFA0CFA88
:1011B0004FF0010B0BFA0CFBABF1010B0BEA030B2D
:1011C0004AEA0B042146404602F036FBBDE8F09F98
:1011D00000BF00F00702064B19684FF6FF031940E5
:1011E000044B0B4343EA0221014B196000BF7047D7
:1011F0000CED00E00000FA0501200149086270478B
:1012000000000E422DE9F04385B006463BA30FCB0C
:1012100001AC0FC43DA0006800904FF0000800250D
:1012200000270024A146012E30D0022E55D0102ECA
:101230005ED137484468006800F0807000B301A8B0
:10124000C4F38341475C04F4803070B13048406897
:10125000C0F340401DF8008004F4803040B12D48B8
:10126000B0FBF8F000FB07F502E02A4807FB00F5A9
:101270002748406800F48000B0F5800F01D1A946EE
:1012800003E068000321B0FBF1F932E02048046A72
:1012900004F44070B0F5807F05D104F0020010B175
:1012A0004FF4004918E004F44070B0F5007F07D116
:1012B0001748406A00F0020010B149F640490BE0BF
:1012C00004F44070B0F5407F06D11148006800F486
:1012D000003008B147F612290BE000F091F90C49F3
:1012E0004968C1F38131491C4900B0FBF1F900E0C4
:1012F00000BF00BF484605B0BDE8F0830203040507
:10130000060708090A0B0C0D0E0F10100102000051
:101310000010024000093D00F8B5044600260025F3
:10132000207800F0010000286BD000274348C069F6
:1013300000F0805070B900BF4048C06940F0805054
:101340003E49C8610846C06900F08050009000BF67
:1013500000BF01273A48006800F48070B0B93848EF
:10136000006840F4807036490860FFF7CDFB064600
:1013700006E0FFF7C9FB801B642801D90320F8BDF4
:101380002F48006800F480700028F2D02B48006AD3
:1013900000F440752DB3A08800F44070A84220D01E
:1013A0002648006A20F44075012026490860002084
:1013B00008602248056205F0010090B1FFF7A4FB28
:1013C000064608E0FFF7A0FB801B41F28831884207
:1013D00001D90320D3E71948006A00F00200002871
:1013E000F0D01648006A20F4407061680843134941
:1013F0000862012F04D10846C06920F08050C861FE
:1014000000BF207800F00200022807D10B48406896
:1014100020F44040A168084308494860207800F063
:101420001000102807D10548406820F48000E168CA
:101430000843024948600020A1E700000010024074
:10144000007000404004424270B504460D460CB99D
:10145000012070BD5A48006800F00700A8420ED273
:101460005748006820F0070028435549086008469F
:10147000006800F00700A84201D00120E9E72078C9
:1014800000F0020002281DD1207800F0040004289A
:1014900005D14C48406840F4E0604A4948602078F3
:1014A00000F00800082805D14648406840F4605024
:1014B000444948604348406820F0F000A168084370
:1014C00040494860207800F0010078B36068012846
:1014D00006D13C48006800F4003090B90120B8E71C
:1014E0006068022806D13748006800F0007040B9F3
:1014F0000120AEE73348006800F0020008B901207F
:10150000A7E73048406820F00300616808432D4990
:101510004860FFF7F9FA064609E0FFF7F5FA801B85
:1015200041F28831884202D9032092E707E025483A
:10153000406800F00C006168B0EB810FEDD12048ED
:10154000006800F00700A8420ED91D48006820F08E
:10155000070028431A4908600846006800F00700A1
:10156000A84201D0012074E7207800F0040004288C
:1015700007D11448406820F4E060E168084311494D
:101580004860207800F00800082808D10D4840681D
:1015900020F46050216940EAC1000A49486000F027
:1015A0003FF808494968C1F30311074A515CC84034
:1015B0000649086006480068FFF76CFD002048E710
:1015C0000020024000100240B04E0008F800002049
:1015D000F00000200148006870470000F80000207B
:1015E00000B5FFF7F7FF04494968C1F30221034A38
:1015F000515CC84000BD000000100240C04E000811
:1016000000B5FFF7E7FF04494968C1F3C221034A67
:10161000515CC84000BD000000100240C04E0008F0
:10162000F0B585B00FF26C0C9CE8E01001A8A0E8C2
:10163000E0101CA52D680095002100220023002445
:101640000020194D696801F00C05F5B1042D02D098
:10165000082D19D101E0154819E001ADC1F3834609
:10166000AC5D01F4803555B10F4D6D68C5F3404553
:101670001DF805200D4D6543B5FBF2F302E00B4D5F
:1016800004FB05F3184602E000BF094800BF00BF95
:1016900005B0F0BD02030405060708090A0B0C0D8E
:1016A0000E0F1010010200000010024000093D0062
:1016B00000127A00F8B504460CB90120F8BD207874
:1016C00000F00100002878D0F848406800F00C00D5
:1016D00004280CD0F548406800F00C00082811D10F
:1016E000F248406800F48030B0F5803F0AD1EF48FE
:1016F000006800F4003000285FD0606800285CD1EA
:101700000120DBE700BF6068B0F5803F06D1E74805
:10171000006840F48030E549086028E0606858B906
:10172000E248006820F48030E0490860084600681C
:1017300020F4802008601AE06068B0F5A02F0BD17B
:10174000DA48006840F48020D849086008460068FC
:1017500040F4803008600AE0D448006820F480300B
:10176000D24908600846006820F48020086000BF65
:10177000606888B1FFF7C8F9054606E0FFF7C4F9CD
:10178000401B642801D9032098E7C848006800F48A
:1017900000300028F2D010E0FFF7B6F9054606E069
:1017A000FFF7B2F9401B642801D9032086E7BF4840
:1017B000006800F400300028F2D1207800F0020028
:1017C000022857D1B948406800F00C0050B1B74822
:1017D000406800F00C00082818D1B448406800F4B4
:1017E000803098B9B148006800F0020020B120694B
:1017F000012801D0012061E7AC48006820F0F80022
:10180000616940EAC100A949086033E02069E8B194
:101810000120A7490860FFF777F9054606E0FFF7C2
:1018200073F9401B022801D9032047E79F4800684D
:1018300000F002000028F2D09C48006820F0F80078
:10184000616940EAC1009949086013E000209849A5
:101850000860FFF759F9054606E0FFF755F9401B08
:10186000022801D9032029E79048006800F002000F
:101870000028F2D1207800F0080008282DD1A069B6
:10188000B8B101208B490860FFF73EF9054606E034
:10189000FFF73AF9401B022801D903200EE78348DD
:1018A000406A00F002000028F2D0012001F0B8FBED
:1018B00013E000207F490860FFF726F9054606E09F
:1018C000FFF722F9401B022801D90320F6E67748EA
:1018D000406A00F002000028F2D1207800F00400F5
:1018E000042873D100277148C06900F0805070B996
:1018F00000BF6E48C06940F080506C49C86108461E
:10190000C06900F08050009000BF00BF01276A4806
:10191000006800F48070B0B96748006840F48070D7
:1019200065490860FFF7F0F8054606E0FFF7ECF8B8
:10193000401B642801D90320C0E65F48006800F41A
:1019400080700028F2D000BFE068012806D1574817
:10195000006A40F001005549086227E0E06858B984
:101960005248006A20F00100504908620846006AA7
:1019700020F00400086219E0E06805280BD14B480C
:10198000006A40F00400494908620846006A40F0D5
:10199000010008620AE04548006A20F0010043495E
:1019A00008620846006A20F00400086200BFE06890
:1019B000A0B1FFF7A9F8054609E0FFF7A5F8401B1D
:1019C00041F28831884202D9032077E622E0374885
:1019D000006A00F002000028EFD012E0FFF794F850
:1019E000054608E0FFF790F8401B41F28831884235
:1019F00001D9032062E62D48006A00F002000028A9
:101A0000F0D1012F05D12948C06920F08050274925
:101A1000C86100BFE069C8B32448406800F00C000A
:101A2000082860D0E069022848D1002020490866D3
:101A3000FFF76AF8054606E0FFF766F8401B022844
:101A400001D903203AE61948006800F00070002828
:101A5000F2D1206AB0F5803F07D11448406820F4E5
:101A60000030A168084311494860D4E908010843DF
:101A70000E49496821F4741108430C49486001205B
:101A80000B490866FFF740F8054607E03DE0FFF721
:101A90003BF8401B022801D903200FE603480068E9
:101AA00000F000700028F2D02FE00000001002408B
:101AB000000042428004424200700040002014496D
:101AC0000866FFF721F8054606E0FFF71DF8401B02
:101AD000022801D90320F1E50E48006800F00070EB
:101AE0000028F2D111E0E069012800D1E6E50948BB
:101AF000466806F48031206A814204D106F47011F0
:101B0000606A814201D00120D8E50020D6E50000BE
:101B1000000042420010024070B5044600250CB996
:101B2000012070BD607C20B900202074204600F0A8
:101B30005BF802206074204600F076F818B10420AB
:101B400060740120EDE7204601F07EFA18B1042010
:101B500060740120E5E72068406820F007002168F4
:101B60004860A06828B11F48006820F001001D49A6
:101B700008601C48001F006820F46070A1680843DA
:101B80001849091F08606068401C08B1656809E0D1
:101B90000120FFF737FB05461DB9042060740120C2
:101BA000BFE76D1E2068806820F00F0040EA1540F6
:101BB000216888602068C06865F30F002168C860EC
:101BC000204601F05EFA18B1042060740120A8E7F5
:101BD0000021E17301216173A17301206074002071
:101BE0009FE70000306C004038B504460B49206880
:101BF000884212D1FFF700FB00BF0948C06940F0DE
:101C000000600749C8610846C06900F000600090A4
:101C100000BF00BF01200349086038BD0028004014
:101C2000001002403C04424270B5044600250CB945
:101C3000012070BD2068406820F0080021684860DD
:101C4000FEF762FF054607E0FEF75EFF401BB0F5BA
:101C50007A7F01D90320ECE72068406800F0080093
:101C60000028F1D00020E4E710B504460CB90120AB
:101C700010BD606A00B900BF0021A16294F8510054
:101C800028B9002084F85000204600F031F80220E6
:101C900084F851002068006820F040002168086046
:101CA000D4E901010843E1680843216908436169F7
:101CB0000843218B01F400710843E1690843216A5C
:101CC0000843A16A0843216808600421A06901EA69
:101CD0001040216848602068C06920F400602168D5
:101CE000C86100206065012084F851000020BFE732
:101CF00010B586B004460020029003900490059031
:101D00001949206888422DD100BF1848806940F4E5
:101D10008050164988610846806900F4805001901F
:101D200000BF00BF00BF0846806940F00400886122
:101D30000846806900F00400019000BF00BFA020A9
:101D40000290022003900320059002A90848FEF7A4
:101D50003DFD4020029000200390049002A9044819
:101D6000FEF734FD06B010BD003001400010024007
:101D7000000801402DE9F84F0446884616461D46E6
:101D80004FF0000A00BF94F85000012802D1022051
:101D9000BDE8F88F012084F8500000BFFEF7B4FEC4
:101DA0000746B14694F85100012802D04FF0020ACC
:101DB000A7E0B8F1000F00D016B94FF0010AA0E07B
:101DC000032084F8510000206065C4F83080A686A6
:101DD000E686A063A087E08760642064A068B0F511
:101DE000004F05D12068006840F4804021680860F9
:101DF0002068006800F04000402805D02068006896
:101E000040F0400021680860E068B0F5006F2FD115
:101E1000606810B1B9F1010F09D1206B0088216809
:101E2000C860206B801C2063E08E401EE0861BE0B3
:101E30002068806800F0020002280AD1206B008828
:101E40002168C860206B801C2063E08E401EE08605
:101E50000AE0FEF759FEC01BA84201D3681C00B976
:101E600015B94FF0030A4CE0E08E0028E0D12EE0D7
:101E7000606810B1B9F1010F09D1206B00782168B9
:101E80000873206B401C2063E08E401EE0861BE040
:101E90002068806800F0020002280AD1206B0078D8
:101EA00021680873206B401C2063E08E401EE08692
:101EB0000AE0FEF729FEC01BA84201D3681C00B946
:101EC00015B94FF0030A1CE0E08E0028E0D13A4635
:101ED0002946204601F0F2F808B120206065A0688C
:101EE00050B900BF002000902068C06800902068B2
:101EF0008068009000BF00BF606D08B14FF0010A1C
:101F000000BF012084F8510000BF002084F8500079
:101F100000BF50463CE770B504462546681EB0F148
:101F2000807F01D301200FE0681E4FF0E02148615F
:101F30000F214FF0FF3001F07FFC00204FF0E02137
:101F4000886107200861002070BD7047704710B598
:101F50000346002200BF93F83C00012801D1022073
:101F600010BD012083F83C0000BF22F0FF00CC68C8
:101F700040EA040222F440708C6840EA040222F431
:101F800080604C6840EA040222F400600C6840EA79
:101F9000040222F480500C6940EA040222F400504A
:101FA0004C6940EA040222F48040CC6940EA040211
:101FB0001868426400BF002083F83C0000BF00BFE7
:101FC000CEE710B5024600BF92F83C00012801D1CF
:101FD000022010BD012082F83C0000BF022082F8E0
:101FE0003D00106843681068846823F07003086837
:101FF000034324F080044868044310684360106879
:102000008460012082F83D0000BF002082F83C007F
:1020100000BF00BFDDE701460868C06840F001006E
:102020000B68D8600868806800F00702062A05D0AF
:102030000868006840F001000B68186000207047D5
:10204000704710B5044620680069C0F34000D8B15D
:102050002068C068C0F34000B0B16FF00200216892
:102060000861012020772068806900F0030018B122
:102070002046FFF7E5FF05E0204600F02DF9204659
:1020800000F042FA0020207720680069C0F3800049
:10209000D8B12068C068C0F38000B0B16FF0040010
:1020A00021680861022020772068806900F4407070
:1020B00018B12046FFF7C4FF05E0204600F00CF9F8
:1020C000204600F021FA0020207720680069C0F344
:1020D000C000D8B12068C068C0F3C000B0B16FF0D4
:1020E000080021680861042020772068C06900F09A
:1020F000030018B12046FFF7A3FF05E0204600F0DB
:10210000EBF8204600F000FA0020207720680069F4
:10211000C0F30010D8B12068C068C0F30010B0B19F
:102120006FF0100021680861082020772068C069DE
:1021300000F4407018B12046FFF782FF05E020460A
:1021400000F0CAF8204600F0DFF900202077206870
:10215000006900F0010058B12068C06800F001007B
:1021600030B16FF0010021680861204600F0CEF91F
:1021700020680069C0F3C01058B12068C068C0F37F
:10218000C01030B16FF08000216808612046FFF771
:10219000DCFE20680069C0F3801058B12068C06878
:1021A000C0F3801030B16FF0400021680861204614
:1021B00000F036FA20680069C0F3401058B120687A
:1021C000C068C0F3401030B16FF020002168086192
:1021D0002046FFF7BBFE10BD10B586B004460020B8
:1021E00002900390049005901B492068884217D103
:1021F00000BF1A48806940F0040018498861084609
:10220000806900F00400019000BF00BFC814029074
:1022100002200390059002A91148FEF7D7FA19E0B1
:102220002068B0F1804F15D100BF0C48806940F0A4
:1022300004000A4988610846806900F004000190A2
:1022400000BF00BF022002900390059002A904483D
:10225000FEF7BCFA06B010BD002C01400010024091
:102260000008014070B504460E46154600BF94F8BC
:102270003C00012801D1022070BD012084F83C00FF
:1022800000BF022084F83D0035B1042D09D0082D8F
:102290000CD00C2D14D10EE03146206801F034F83A
:1022A0000FE03146206801F05FF80AE0314620680F
:1022B00001F08EF805E03146206801F0BDF800E03D
:1022C00000BF00BF012084F83D0000BF002084F85B
:1022D0003C0000BF00BFCFE7704710B504460CB903
:1022E000012010BD94F83D0028B9002084F83C007E
:1022F000204600F00DF8022084F83D00211D2068E2
:1023000000F0B6FF012084F83D000020E9E700005E
:1023100008B50168B1F1804F0DD100BF0649C96908
:1023200041F00101044AD1611146C96901F001017E
:10233000009100BF00BF08BD0010024070B5044608
:102340000E4601223146206800F0CCFF0D4920687E
:10235000884201D1012000E0002028B12068406CB3
:1023600040F40040216848642068806800F0070558
:10237000062D05D02068006840F001002168086043
:10238000002070BD002C014070B504460D46164675
:1023900000BF94F83C00012801D1022070BD01204B
:1023A00084F83C0000BF022084F83D0036B1042EC2
:1023B0001BD0082E31D00C2E5ED145E02946206876
:1023C00000F0A2FF2068806940F008002168886161
:1023D0002068806920F00400216888612068806995
:1023E000296908432168886147E02946206800F090
:1023F000BBFF2068806940F4006021688861206824
:10240000806920F48060216888612068806929697A
:1024100040EA0120216888612FE02946206800F009
:10242000D7FF2068C06940F008002168C8612068B3
:10243000C06920F004002168C8612068C06929696A
:1024400008432168C86118E02946206800F0F4FFBD
:102450002068C06940F400602168C8612068C069D4
:1024600020F480602168C8612068C069296940EA59
:1024700001202168C86100E000BF00BF012084F88E
:102480003D0000BF002084F83C0000BF00BF85E78E
:1024900010B504460CB9012010BD94F83D0028B9D0
:1024A000002084F83C00204600F00CF8022084F85C
:1024B0003D00211D206800F0DBFE012084F83D0076
:1024C0000020E9E738B504460D492068884215D157
:1024D00000BF0C48806940F400600A4988610846E2
:1024E000806900F40060009000BF00BF0022114628
:1024F0001920FEF72FFE1920FEF71CFE38BD000044
:10250000002C0140001002407047000010B5E0B000
:1025100004463B480078012806D10020384908705D
:102520003848007802F04EFC37480078E0B935486A
:10253000007802F047FC012211023448FEF7DDFA70
:10254000012001E0411C88B20F28FBDB00224FF480
:1025500080712E48FEF7D1FA2A48007802F09EF8E2
:102560002849087060B010BD27480078012844D180
:102570002448007802F026FC254800684FF4BE721B
:1025800024495F906846FDF7DDFD224810380FC8EA
:1025900002F0BAFA204801681D48006802F057FCB2
:1025A0000A234FF490721C4801681C48FFF7E2FBB5
:1025B000012211021548FEF7A0FA0122102113484A
:1025C000FEF79BFA012001E0411C88B20F28FBDBDB
:1025D000002210210D48FEF790FA00224FF480717E
:1025E0000A48FEF78AFA0020074908700548007873
:1025F00002F054F803490870B4E700BFB2E70000E6
:1026000016000020170000201400002000080140E0
:102610001C000020B00500202000002064010020E4
:10262000704770472DE9F047044620680568206828
:10263000C668206847694FF00008C14605F00F08DA
:10264000B8F1000F0AD105F0200038B106F02000E3
:1026500020B1204600F03EFFBDE8F087B8F1000F42
:102660006DD007F0010018B906F49070002866D00C
:1026700005F0010030B106F4807018B1E06B40F055
:102680000100E06305F0040030B107F0010018B16B
:10269000E06B40F00200E06305F0020030B107F0AB
:1026A000010018B1E06B40F00400E06305F00800A1
:1026B00030B107F0010018B1E06B40F00800E063B2
:1026C000E06B68B305F0200028B106F0200010B1DF
:1026D000204600F0FFFE20684069C0F38019E06BDF
:1026E00000F0080010B9B9F1000F22D0204600F028
:1026F000D1FE2068406900F04000B0B12068406918
:1027000020F0400021684861606B50B11748616B50
:102710004863606BFDF7DEFF10B1606B416B88476B
:102720000CE02046FFF77DFF08E02046FFF779FF29
:1027300004E02046FFF775FF0020E0638CE705F01A
:10274000800030B106F0800018B1204600F0E6FFAE
:1027500082E705F0400030B106F0400018B1204695
:1027600000F0A8FE78E700BF76E70000813400089B
:1027700010B504460CB9012010BDA06900B100E0FD
:1027800000BF94F8390028B9002084F838002046AA
:1027900000F028F8242084F839002068C06820F46C
:1027A00000502168C860204600F0E8FE20680069FB
:1027B00020F49040216808612068406920F02A00D8
:1027C000216848612068C06840F400502168C860F2
:1027D0000020E063202084F8390084F83A000020CB
:1027E000CAE7000010B586B00446002002900390AE
:1027F000049005901E492068884236D100BF1D48CC
:10280000806940F480401B4988610846806900F473
:102810008040019000BF00BF00BF0846806940F0C3
:10282000040088610846806900F00400019000BF40
:1028300000BF48150290022003900320059002A9D2
:102840000D48FDF7C3FF4FF4806002900020039015
:10285000049002A90848FDF7B9FF002201212520B4
:10286000FEF778FC2520FEF765FC06B010BD0000E1
:1028700000380140001002400008014010B5034636
:1028800093F83A0020282FD101B10AB9012010BDD8
:1028900000BF93F83800012801D10220F7E701209A
:1028A00083F8380000BF99629A85DA850020D863E2
:1028B000222083F83A0000BF002083F8380000BFD0
:1028C0001868C06840F480701C68E060186840694F
:1028D00040F001001C6860611868C06840F020008A
:1028E0001C68E0600020D2E70220D0E710B5044663
:1028F0000D480E490978405C0A2806D101200C4990
:10290000087000200949087004E008480078401C5D
:10291000064908700448054A1278811801220548C2
:10292000FFF7ACFF10BD00002012002018000020AF
:10293000150000203C0200202DE9F84304460D4616
:1029400016461F464FF0000994F8390020285CD144
:1029500005B116B90120BDE8F88300BF94F838002E
:10296000012801D10220F6E7012084F8380000BFD9
:102970000020E063212084F83900FEF7C5F8814685
:10298000A684E6842BE0E08C401EE084A068B0F5CD
:10299000805F16D14B46002280212046009700F030
:1029A000F1FE08B10320D6E7A846B8F80000C0F34E
:1029B000080021684860206908B9AD1C0FE06D1C53
:1029C0000DE04B46002280212046009700F0DAFE01
:1029D00008B10320BFE715F8010B21684860E08CBF
:1029E0000028D0D14B46002240212046009700F01D
:1029F000C9FE08B10320AEE7202084F8390000BFEB
:102A0000002084F8380000BFA5E70220A3E7704744
:102A100000BFFEE7014608684069C0F38020B0B1FE
:102A20006FF480600A68506100200863202081F8FC
:102A30003D00002081F83E00086C40F0040008646E
:102A400000BF002081F83C0000BF0120704700203B
:102A5000FCE700002DE9F84304460D46174698466A
:102A6000E66A082E04D0012E02D016F5803F06D16A
:102A70002068006840F480702168086008E0206BDE
:102A8000122805D12068006840F480702168086031
:102A90003B4600224FF001112046CDF8008000F0A7
:102AA0005DF810B10120BDE8F8832069B0F5804FD2
:102AB00004D105F0FE002168086112E005F44070C1
:102AC000F02141EAE0102168086143463A460B498B
:102AD000204600F086F808B10120E4E7E8B221685A
:102AE000086143463A460549891F204600F079F8B7
:102AF00008B10120D7E70020D5E700000800010059
:102B000070B504460D46164620E02046FFF782FFCA
:102B100008B1012070BD681CC0B1FDF7F5FF801B36
:102B2000A84200D895B900202063202084F83D00F9
:102B3000002084F83E00206C40F02000206400BF9C
:102B4000002084F83C0000BF0120E3E720684069D2
:102B5000C0F380000028D8D00020DBE72DE9F04149
:102B600004460D4617461E46DDF818801CE0701C12
:102B7000D0B1FDF7C9FFA0EB0800B04200D89EB964
:102B800000202063202084F83D00002084F83E00CF
:102B9000206C40F02000206400BF002084F83C003E
:102BA00000BF0120BDE8F081C5F3074001280AD12C
:102BB00020684069A9B20840A9B2884201D1012029
:102BC0000BE0002009E020688069A9B20840A9B2A2
:102BD000884201D1012000E00020B842C7D0002087
:102BE000E0E72DE9F04104460D4616461F463DE05C
:102BF00020684069C0F38020E8B12068006840F494
:102C00000070216808606FF48060216848610020CE
:102C10002063202084F83D00002084F83E00206CD2
:102C200040F00400206400BF002084F83C0000BF96
:102C30000120BDE8F081701CC0B1FDF765FFC01B2D
:102C4000B04200D896B900202063202084F83D00CF
:102C5000002084F83E00206C40F02000206400BF7B
:102C6000002084F83C0000BF0120E2E7C5F30740E4
:102C700001280AD120684069A9B20840A9B2884257
:102C800001D101200BE0002009E020688069A9B291
:102C90000840A9B2884201D1012000E000200028AC
:102CA000A6D00020C5E770B504460D46164620E0C4
:102CB0002046FFF7AFFE08B1012070BD681CC0B10F
:102CC000FDF722FF801BA84200D895B900202063A1
:102CD000202084F83D00002084F83E00206C40F065
:102CE0002000206400BF002084F83C0000BF0120C9
:102CF000E3E720684069C0F3C0100028D8D0002066
:102D0000DBE7000000B585B0002001900290039041
:102D1000049000BF3948806940F02000374988613D
:102D20000846806900F02000009000BF00BF00BF8F
:102D30000846806940F0040088610846806900F018
:102D40000400009000BF00BF00BF0846806940F04B
:102D5000080088610846806900F00800009000BF04
:102D600000BF002248F210112548FDF7C6FE0022E0
:102D70004FF603712348FDF7C0FE48F21010019092
:102D800001200290002003900220049001A91C4819
:102D9000FDF71CFD4FF6037001900120029000200A
:102DA00003900220049001A91648FDF70FFD0820AA
:102DB0000190002002900120039001A91148FDF725
:102DC00005FD30200190104802900020039001A9D9
:102DD0000C48FDF7FBFC002202210A20FEF7BAF99D
:102DE0000A20FEF7A7F9002202211720FEF7B2F908
:102DF0001720FEF79FF905B000BD0000001002404B
:102E000000080140000C01400000211010B50B48E3
:102E10000B4908600B484860002109488160C16087
:102E20004FF480410161002141618161C161016212
:102E3000FDF770FE08B1FDF74CFC10BD00540040DA
:102E4000FC000020A086010010B508480849086071
:102E50004FF0FF3048604FF4807105488160FEF705
:102E60005BFE08B1FDF735FC10BD000000280040F6
:102E70005001002010B50E480E4908604FF48270D2
:102E8000486000210B488160C160016141614FF4DD
:102E9000007181610021C1610162416281620A2188
:102EA000C162FEF7E1FE08B1FDF713FC10BD0000A2
:102EB000003001406401002000B591B000200F9067
:102EC00010901C2108A8FDF756F920216846FDF74F
:102ED00052F9234823490860002048600021214816
:102EE000816043F6FF71C160002101614161816130
:102EF000FFF7CEFA08B1FDF7ECFB20200F90002081
:102F000010900FA91748FFF75CF808B1FDF7E1FB37
:102F100060200890002009900A900C900D900E906F
:102F20000C2208A90F48FFF72FFA08B1FDF7D1FBD3
:102F30000020009001900290039004904FF4005004
:102F400005900020079069460648FFF700F808B191
:102F5000FDF7BFFB0348FFF73FF911B000BD0000CC
:102F6000002C0140BC01002000B589B00020079072
:102F700008901C216846FDF7FEF84FF08040174985
:102F80000860002048600021144881600121C16070
:102F9000002101618161FFF7A0F908B1FDF799FBFC
:102FA00000200790089007A90C48FFF70AF808B11D
:102FB000FDF78FFB3020009001200190002002904F
:102FC0000490042269460548FFF74CF908B1FDF763
:102FD00080FB0248FFF700F909B000BDFC010020AA
:102FE00010B50B480B4908604FF4E13048600021F0
:102FF00008488160C16001610C214161002181614B
:10300000C161FFF7B5FB08B1FDF763FB10BD000020
:10301000003801403C02002000BFFEE770477047C7
:1030200008B508490968C9084FF47A72B1FBF2F192
:103030004143009100BF00BF00994A1E0092002941
:10304000F9D108BDF800002070B504460025FDF751
:103050005BFD054607E0FDF757FD401BB0F57A7FA5
:1030600001D9032070BD2068406800F020000028CE
:10307000F1D02068406840F01000216848600020CE
:10308000F0E770B5044600252068406820F0100085
:1030900021684860FDF738FD054607E0FDF734FD7F
:1030A000401BB0F57A7F01D9032070BD20684068CD
:1030B00000F020000028F1D00020F6E7F8B5044623
:1030C0000D4616462B46002280212046009600F031
:1030D00009F828B1606D40F0200060650320F8BD5C
:1030E0000020FCE72DE9F04104460E4617461D4638
:1030F000DDF818803EE0681CD8B3FDF705FDA0EBB5
:103100000800A84200D2A5BB2068406820F0E0007B
:10311000216848606068B0F5827F0DD1A068B0F585
:10312000004F03D0A068B0F5806F05D1206800681B
:1031300020F0400021680860A06AB0F5005F0DD162
:1031400000BF2068006820F40050216808602068F3
:10315000006840F400502168086000BF012084F836
:10316000510000BF002084F8500000BF0320BDE8DC
:10317000F081FFE7206880683040B04201D1012033
:1031800000E00020B842B6D10020F0E7704710B54B
:10319000FDF760FF10BD00B593B0282109A8FCF72A
:1031A000EAFF142104A8FCF7E6FF0020009001903C
:1031B00002900390092009904FF480300A9001207A
:1031C0000F900020109009A8FEF774FA08B1FDF7DF
:1031D00080FA0F20049001200590002006900790AF
:1031E0000890002104A8FEF72FF908B1FDF771FA45
:1031F00001200090400201906846FEF78DF808B16A
:10320000FDF767FA13B000BD1148006840F00100F7
:103210000F490860084640680E4908400C4948605C
:10322000084600680C4908400949086008460068DB
:1032300020F4802008600846406820F4FE004860C2
:103240004FF41F008860C8030449086070470000FD
:10325000001002400000FFF8FFFFF6FE08ED00E05E
:1032600010B50248FEF7EDFE10BD0000BC010020C5
:1032700010B50268184B984208D0B0F1804F05D0C5
:10328000164B984202D0164B984203D122F070029E
:103290004B681A43104B984208D0B0F1804F05D0CC
:1032A0000E4B984202D00E4B984203D122F440724A
:1032B000CB681A4322F080034C6943EA040202609F
:1032C0008B68C3620B688362034B984201D10B6920
:1032D00003630123436110BD002C01400004004042
:1032E0000008004030B501F01F05012404FA05F381
:1032F000046A9C430462046A01F01F0502FA05F5A2
:103300002C43046230BD000030B5056A25F001058C
:103310000562026A4368846924F0700424F003049F
:103320000D682C4322F002028D682A430D4DA842FD
:1033300006D100BF22F00802CD682A4322F0040221
:10334000084DA84207D123F4807323F400734D691C
:103350002B438D692B43436084614D684563026252
:1033600030BD0000002C014030B5056A25F0100585
:103370000562026A4368846924F4E04424F44074DA
:103380000D6844EA052422F020028D6842EA051205
:103390000E4DA84207D100BF22F08002CD6842EA5C
:1033A000051222F04002094DA84209D123F480639E
:1033B00023F400634D6943EA85038D6943EA85037D
:1033C000436084614D688563026230BD002C01401A
:1033D00030B5056A25F480750562026A4368C469E0
:1033E00024F0700424F003040D682C4322F40072CE
:1033F0008D6842EA05220F4DA84207D100BF22F492
:103400000062CD6842EA052222F48062094DA8429A
:1034100009D123F4805323F400534D6943EA051383
:103420008D6943EA05134360C4614D68C563026258
:1034300030BD0000002C014030B5056A25F48055F0
:103440000562036A4468C26922F4E04222F44072D1
:103450000D6842EA052223F400538D6843EA0533E0
:10346000064DA84204D124F480444D6944EA8514F1
:103470004460C2614D680564036230BD002C0140A8
:1034800070B505466C6A0020E085E0842046FFF7B1
:10349000C8F870BD0168C96821F490710268D160F4
:1034A0000168496921F0010102685161202180F819
:1034B0003A10704710B504462068C06820F04000FC
:1034C0002168C860202084F839002046FFF79FFA61
:1034D000002010BD70B5044694F83A0022284AD165
:1034E000A068B0F5805F13D1A56A206940B9206853
:1034F0004068C0F308002880A06A801CA06219E020
:1035000020684068C0B22880A06A401CA06211E018
:10351000206938B920684068C1B2A26A501CA06214
:10352000117007E02068406800F07F01A26A501C1B
:10353000A0621170E08D401E80B2E085C8B920689D
:10354000C06820F020002168C8602068C06820F4AE
:1035500080702168C8602068406920F001002168FF
:103560004861202084F83A002046FFF7BFF9002088
:1035700070BD0020FCE70220FAE7000070B50446A9
:103580002168096921F44051E26811432268116100
:103590002269A1681143626941EA02052168C9688C
:1035A00041F20C62914329432268D1602168496944
:1035B00021F44071A269114322685161564A216881
:1035C000914254D1FEF71CF800EBC00101EB001151
:1035D00062689200B1FBF2F100EBC00202EB001254
:1035E00063689B00B2FBF3F26423B2FBF3F202EBDD
:1035F000C20303EB0212A1EB8201322202EB0111A2
:103600006422B1FBF2F101F0F00100EBC00202EB29
:10361000001263689B00B2FBF3F26423B2FBF3F287
:1036200001EB021200EBC00101EB001163689B008B
:10363000B1FBF3F100EBC00303EB00136668B600C7
:10364000B3FBF6F36426B3FBF6F303EBC30606EB1A
:103650000313A1EB8301322303EB01116423B1FBBC
:10366000F3F101F00F0111442268916053E0FDF77E
:10367000B7FF00EBC00101EB001162689200B1FBE3
:10368000F2F100EBC00202EB001263689B00B2FB98
:10369000F3F26423B2FBF3F202EBC20303EB021278
:1036A000A1EB8201322202EB01116422B1FBF2F1A3
:1036B00001F0F00100EBC00202EB001263689B0016
:1036C000B2FBF3F26423B2FBF3F201EB021200EB64
:1036D000C00101EB001163689B00B1FBF3F100EB4B
:1036E000C00303EB00136668B600B3FBF6F3642671
:1036F000B3FBF6F303EBC30606EB0313A1EB830165
:10370000322303EB01116423B1FBF3F101F00F014C
:1037100011442268916070BD00380140014691F863
:10372000390021282CD18868B0F5805F0FD10A6A52
:103730001088C0F308000B685860086918B9086A57
:10374000801C086209E0086A401C086205E00B6AF8
:10375000581C086218780B685860C88C401E80B2EC
:10376000C88458B90868C06820F080000B68D86029
:103770000868C06840F040000B68D86000207047BF
:103780000220FCE72DE9F04104460D461746984615
:10379000069E21E0701CF8B12EB1FDF7B5F9A0EB43
:1037A0000800B04218D92068C06820F4D0702168A1
:1037B000C8602068406920F001002168486120202D
:1037C00084F8390084F83A0000BF002084F83800FB
:1037D00000BF0320BDE8F081206800682840A842AF
:1037E00001D1012000E00020B842D3D00020F1E751
:1037F00010B50248FEF716FF10BD00003C02002085
:1038000000BFFEE737B514460846064B6A46214618
:1038100000F0F8F804466946002000F08AFC2046D3
:103820003EBD00003341000802480068C0F302209A
:10383000704700000CED00E010B5002804DB0A071B
:10384000130E054A135406E00A07140E034A00F04B
:103850000F031B1FD45410BD00E400E018ED00E07E
:1038600002E008C8121F08C1002AFAD17047704749
:10387000002001E001C1121F002AFBD170470000A7
:103880002DE9FF5F82B00021DDE90430020DDDF893
:1038900040B0034318D044F61050A2F2FF32424326
:1038A0001514119801281FD0A5EB0B00401C5FEAEE
:1038B000000A4FF000064E4FDFF83891B0465046F0
:1038C00015D5CAF1000413E0119801244AA3012878
:1038D00001D16FEA0B010298119AC0E90031C0E9E9
:1038E000024206B0BDE8F09FCBF10000DFE70446DE
:1038F0000021404A491842EB0450CDE9001012E083
:10390000E00707D032463B4640464946FCF733FDC8
:103910008046894632463B4610461946FCF72BFD49
:1039200006460F466410002CEAD1DDE90401DDE90A
:103930000023BAF1000F06DAFCF71DFD42464B46A4
:10394000FCF719FD05E0FCF788FD42464B46FCF705
:1039500084FD04460E460022284BFCF705FE03D8E2
:103960004FF0FF30014607E00022254B204631464C
:10397000FCF75AFCFCF7E0FD102409E0002C0ADB00
:103980000A220023FCF71FFC039B30321A55641EE9
:1039900050EA0102F2D1641C039AC4F111031444E9
:1039A000119A012A03D0012208430DD10AE00843ED
:1039B00004D000204FF0110B119072E7A3EB0B0520
:1039C0006D1E0DE05B4504DD4FF0000205F10105C1
:1039D00004E003DA4FF00002A5F10105002AECD063
:1039E00002981199C0E90231C0E9004579E7000069
:1039F000000014400000F03F300000000000F043E1
:103A00000000E03F2DE9FF4F95B09B4689460646F2
:103A100000250FE2252877D100242746F84A012106
:103A2000059400E0044316F8013F203B01FA03F03F
:103A30001042F7D130782A2811D06FF02F03307858
:103A4000A0F13002092A16D8059A44F0020402EBCC
:103A5000820203EB42021044761C0590EFE759F80E
:103A6000042B0592002A03DA504244F400540590D6
:103A700044F00204761C30782E2816D116F8010F77
:103A800044F004042A280DD06FF02F023078A0F102
:103A90003003092B09D807EB870302EB4303C71850
:103AA000761CF3E759F8047B761C30786C280FD02D
:103AB00006DC4C2817D068280DD06A2814D104E001
:103AC000742810D07A280FD10DE044F400140AE0D5
:103AD00044F4801401E044F440147278824202D12C
:103AE00004F58014761C761C307866280BD013DC25
:103AF000582877D009DC002875D04528F6D046280C
:103B0000F4D047281AD19DE118E0632835D0642805
:103B100079D0652812D195E1702873D008DC672828
:103B2000F1D069286FD06E280DD06F2806D1B5E08E
:103B300073282CD0752875D0782874D05A461799D8
:103B400090476D1C75E1C4F30250022809D0032888
:103B50000DD0D9F8001004280DD00D6009F104092A
:103B600067E1D9F80010EA17C1E90052F6E7D9F881
:103B700000100D80F2E70D70F0E719F8041B8DF8C6
:103B8000001000208DF80100EA46012003E059F8FA
:103B900004AB4FF0FF3061074FF0000102D40DE09D
:103BA00008F101018846B9420FDA8045F8DB1AF8BE
:103BB00008100029F4D108E008F10101884681428B
:103BC000FADB1AF808100029F6D105985B46A0EB3D
:103BD000080721463846179A00F094FA284400EB6B
:103BE000080507E04DE029E10DE01AF8010B5A46FF
:103BF00017999047B8F10108F7D25B46214638463D
:103C0000179A13E142E00A220092C4F302524FF0E5
:103C1000000A022A08D059F804CB032A4FEAEC71B3
:103C20000AD00DE029E02AE009F1070121F007029E
:103C3000F2E802C1914609E00FFA8CFC4FEAEC7100
:103C4000042A03D14FFA8CFC4FEAEC71002907DA01
:103C50000A460021DCF1000C61EB02012D2202E09A
:103C6000220504D52B228DF80420012203E0E2076F
:103C700001D02022F7E7904659E00A2102E0102205
:103C80000DE010214FF0000A00910BE010224FF0E0
:103C9000000A44F004040827009203E008224FF0D1
:103CA000000A0092C4F30252022A05D059F804CB4C
:103CB0000021032A08D009E009F1070121F00702D9
:103CC000F2E802C1914605E01FFA8CFC042A01D1FA
:103CD0000CF0FF0C4FF00008220728D5702806D002
:103CE000009B83F0100353EA0A0305D00EE0402244
:103CF0008DF80420012208E05CEA010206D030229F
:103D00008DF804208DF8050002229046009B83F078
:103D1000080353EA0A030AD15CEA010201D16207EF
:103D200005D530228DF804204FF001087F1E582859
:103D300004D034A003900EA802900DE036A0F9E75D
:103D400053466046009AFCF73EFA84460398825C2C
:103D50000298401E029002705CEA0100F0D10298C5
:103D600006A9081A00F1200A600702D524F480345D
:103D700000E00127574502DDA7EB0A0000E0002024
:103D800000EB0A01009005984144401A0590E003B9
:103D900006D45B462146179A059800F0B3F905440E
:103DA000002706E001A85A46C05D179990476D1C90
:103DB0007F1C4745F6DBE0030CD55B462146179A8E
:103DC000059800F09FF9054404E030205A46179901
:103DD00090476D1C0099481E00900029F5DC08E012
:103DE000029802995A460078491C02911799904707
:103DF0006D1CBAF10001AAF1010AF1DC65E10000D5
:103E000009280100303132333435363738396162B0
:103E10006364656600000000303132333435363774
:103E200038394142434445460000000000F058F94B
:103E30000544761C307800287FF4ECAD19B0284694
:103E4000BDE8F08F620700D4062709F1070222F0CF
:103E5000070CFCE80223E14603F000485FEA080C87
:103E600002D00FF2702C0DE05FEA045C02D50FF275
:103E7000682C07E05FEAC47C02D00FF2602C01E0FE
:103E8000AFF2700C4FF0FF3823F00043CDF850C074
:103E900065280CD006DC452809D046281DD04728C7
:103EA0003DD13DE0662818D067287ED138E000215A
:103EB000112F01DB112000E0781CCDE9000106A9DB
:103EC0000EA8FFF7DDFCDDE90F010E9A039100213A
:103ED000009207F1010A04914DE04FF00040009775
:103EE000CDE9011006A90EA8FFF7CAFCDDE90F0213
:103EF00003920E9B11990022DDF80CA0009304920E
:103F000011B9791C00EB010AB7EB0A0004D4C0F127
:103F1000FF3007F1010A0490AAEB0700019044E08A
:103F2000012F00DA01270021112F01DD112000E00F
:103F30003846CDE9000106A90EA8FFF7A1FCDDE98E
:103F40000F010E9A0391002104910092BA462107B5
:103F50000CD40399514500DA8A46BAF1010F05DD08
:103F6000009AAAF10101515C302908D0B84202DA66
:103F700010F1040F06DA0121CDE9011015E0AAF1D4
:103F80000101E9E7002805DC049901440491AAEB4A
:103F9000000102E0411C514500DD8A460499401AA7
:103FA000401C01904FF000400290200704D401987B
:103FB000504501DBCDF8048000208DF84F000298B9
:103FC0000DF14F07B0F1004F25D02B200E90029835
:103FD0004FF0020800280CDA404202902D200E908B
:103FE00007E00A210298FCF7D8F83031029007F870
:103FF000011DB8F10001A8F10108F2DC02980028C7
:10400000EFD1791E0E980870307800F0200040F053
:10401000450007F8020D12A8C01B00F1070814980C
:10402000007800B1012000EB0A01019801EBE0717A
:1040300005984144401A401E0590E00306D45B46B3
:104040002146179A059800F05DF805441498007809
:1040500018B15A46179990476D1CE00324D55B466A
:104060002146179A059800F04DF805441CE0049885
:10407000002807DBDDE90301884203DD0098405C8E
:10408000179901E0179930205A469047049805F196
:104090000105401C04900198401E019004D12E207F
:1040A0005A46179990476D1CBAF10001AAF1010A0E
:1040B000DDDC05E017F8010B5A46179990476D1C97
:1040C000B8F10001A8F10108F4DC5B462146179A1B
:1040D0000598ABE62D0000002B000000200000003A
:1040E0002DE9F041044600251E461746880404D4F5
:1040F00005E039462020B0476D1C641EF9D52846DE
:10410000BDE8F0812DE9F041044600251E469046A9
:10411000C80301D5302700E02027880404D505E036
:1041200041463846B0476D1C641EF9D52846BDE8A7
:10413000F0810A68531C0B60107070472DE9F04144
:104140000146002000244FF0004516E002EA040674
:1041500003EA05074FF0000886EA080687EA080721
:104160003E4302D001260E5401E000260E546D0895
:104170004FEA340400F10106F0B24028E6DBBDE866
:10418000F08170470146002027E000220A542028D1
:1041900003DA002301F166021354142803DA002322
:1041A00001F1870213540A2815DA002301F19B025A
:1041B00013540A3213540A3213540A3213540A3273
:1041C00013540A3213540A3213540A3213540A3263
:1041D00013540A321354421CD0B26428D5DB002297
:1041E00081F8642081F8652081F8862070470000FE
:1041F00010B5044694F8650000B910BD94F8650048
:10420000012808D111A104F1660000F03AFA042057
:1042100084F8860018E094F86500032808D10DA101
:1042200004F1660000F02DFA102084F886000BE0FF
:1042300094F86500022807D10BA104F1660000F094
:1042400020FA112084F8860000BFD6E74F4B0D0AF4
:1042500000000000417267756D656E7420457272D2
:104260006F720D0A00000000496E76616C6964206F
:10427000436F6D6D616E640D0A0000002DE9F34F10
:1042800091B0044685A104F1870000F0DEF9002812
:104290003DD094F86400052805D0032084F865001B
:1042A00013B0BDE8F08F04F19B0000F0BBF900F003
:1042B000FF0A04F1A50000F0B5F900F0FF0B04F1CE
:1042C000AF0000F0AFF9064604F1B90000F0AAF91A
:1042D000814604F1C30000F0A5F9054600204A46D6
:1042E0000346CDE900503046002100F07FF9074633
:1042F00088463A4643465946CDF800A0129800F049
:10430000A6FA01206A49087084F86500C3E069A133
:1043100004F1870000F099F918B394F864000328B9
:1043200003D0032084F86500BAE704F19B0000F095
:1043300079F9C7B204F1A50000F074F900F0FF08A4
:1043400004F1AF0000F06EF9002605462A46334618
:1043500041460097129800F07AFA012084F865002F
:1043600099E05AA104F1870000F06FF960B394F866
:104370006400042803D0032084F8650090E704F16A
:10438000A50000F04FF9C6B204F1AF0000F04AF901
:1043900000F0FF0904F1B90000F044F9C5B20020B3
:1043A0004A460346CDE900503046002100F01EF990
:1043B000074688463A46434604F19B00FFF7E1FE74
:1043C000012084F8650066E045A104F1870000F053
:1043D0003CF950B194F8640018B1032084F86500EA
:1043E0005EE7012084F8650055E042A104F18700F2
:1043F00000F02BF958B394F86400032803D003208D
:1044000084F865004CE704F19B0000F00BF900F024
:10441000FF0904F1A50000F005F94FF00008074678
:1044200004F1AF0000F0FEF8002605462A463346A8
:1044300001A8FFF783FE01A83A464346494600908B
:10444000129800F06BF9012084F8650023E02DA19B
:1044500004F1870000F0F9F8A0B194F86400052891
:1044600003D0032084F865001AE704F19B0000F0F4
:10447000D9F8C5B204F1A50000F0D4F8012084F801
:10448000650008E010A104F1870000F0DEF810B923
:10449000022084F8650000BF02E700007365745FC6
:1044A00073696E676C655F6C65645F72676200005C
:1044B000140000207365745F73696E676C655F6CD0
:1044C00065645F636F6C6F7200000000636F6C6FF8
:1044D000725F646566696E6974696F6E00000000E2
:1044E000636F6C6F725F646566696E6974696F6E25
:1044F0003F0000007365745F6C79725F636F6C6F6F
:10450000720000007365745F6C79725F726762009D
:1045100030B5002100230022047804B930BD56E0F4
:10452000445C202C04D14C1CE1B2541CE2B20023A8
:1045300022B9455C00F18704E55444E0012A04D126
:10454000455C00F19B04E5543DE0022A04D1455C42
:1045500000F1A504E55436E0032A04D1455C00F1DE
:10456000AF04E5542FE0042A04D1455C00F1B904FE
:10457000E55428E0052A04D1455C00F1C304E55464
:1045800021E0062A04D1455C00F1CD04E5541AE08F
:10459000072A04D1455C00F1D704E55413E0082A4A
:1045A00004D1455C00F1E104E5540CE0092A04D192
:1045B000455C00F1EB04E55405E00A2A03D1455CB3
:1045C00000F1F504E5544C1CE1B25C1CE3B2642933
:1045D00008DA445C0D2C05D0445C0A2C02D0445C03
:1045E000002C9DD180F8642000BF97E72DE9F043AF
:1045F00004460D4616461F46DDE9078922432B4334
:10460000180440EA1243120442EA080243EA09038A
:10461000180440EA1243120432433B431046194641
:10462000BDE8F08330B5024613460021002008E0C3
:104630005C5C00EB800504EB4504303CA0B24C1CF4
:10464000E1B25C5C002CF3D130BDF0B504460D4600
:1046500022462B460020002107E0565C5F5CBE42EC
:1046600002D14E1CF1B200E0F0BD565C16B15E5CAA
:10467000002EF2D1565C16B95E5C06B9012000BF6F
:10468000F2E70246002003E00B5C1354431CD8B24F
:10469000202802DA0B5C002BF6D1704710B50446D7
:1046A00024B94FF480711C48FCF720FA012C03D187
:1046B00061021948FCF71AFA022C03D1610216486C
:1046C000FCF714FA032C04D14FF400611248FCF7F4
:1046D0000DFA042C03D1A1020F48FCF707FA052CB0
:1046E00004D14FF400510C48FCF700FA062C04D119
:1046F0004FF480410848FCF7F9F9072C04D14FF436
:1047000000410548FCF7F2F9601C84B2082C00D186
:104710000024204610BD0000000C01402DE9F041AE
:10472000E4B004460F4615461E46DDF8A8816FB971
:104730004FF4BE7204F11001684660ABA3E860015B
:10474000FBF700FD94E80F0000F004FA012F0FD1F1
:104750004FF4BE7204F5CE71684660ABA3E8600109
:10476000FBF7F0FC04F5C0700C300FC800F0F2F954
:10477000022F0FD14FF4BE7204F54A71684660AB48
:10478000A3E86001FBF7DEFC04F5407018300FC8A9
:1047900000F0E0F9032F0FD14FF4BE7204F2B441E0
:1047A000684660ABA3E86001FBF7CCFC04F59060C1
:1047B00024300FC800F0CEF9042F0FD14FF4BE7291
:1047C00004F5C861684660ABA3E86001FBF7BAFC7A
:1047D00004F5C06030300FC800F0BCF9052F0FD1D0
:1047E0004FF4BE7204F2CC71684660ABA3E860017E
:1047F000FBF7A8FC04F5F0603C300FC800F0AAF904
:10480000062F0FD14FF4BE7204F65811684660AB04
:10481000A3E86001FBF796FC04F5106048300FC870
:1048200000F098F9072F0FD14FF4BE7204F6E4217F
:10483000684660ABA3E86001FBF784FC04F52860E0
:1048400054300FC800F086F964B0BDE8F0812DE95E
:10485000F84304460D4616461F46DDF8208045B94C
:10486000CDF8008032463B46D4F8600C00F090F959
:104870004BE0012D08D1CDF8008032463B46D4F8FC
:10488000640C00F085F940E0022D08D1CDF80080DD
:1048900032463B46D4F8680C00F07AF935E0032D37
:1048A00008D1CDF8008032463B46D4F86C0C00F0BD
:1048B0006FF92AE0042D08D1CDF8008032463B463E
:1048C000D4F8700C00F064F91FE0052D08D1CDF884
:1048D000008032463B46D4F8740C00F059F914E0DD
:1048E000062D08D1CDF8008032463B46D4F8780C2E
:1048F00000F04EF909E0072D07D1CDF800803246CF
:104900003B46D4F87C0C00F043F9BDE8F88310B5C1
:104910000021084600F0D6F810BD10B5012000F0C7
:1049200085F80320FBF72EFF10BD000010B50446EC
:104930003220FBF727FF2B4804604FF4FA7305225F
:104940004E210068FCF7C2F970B14FF4FA730522EA
:104950007E2124480068FCF7B9F908B1002010BD99
:104960007E202149087002E04E201F4908702D204A
:10497000FBF708FF302000F059F80520FBF702FF95
:10498000302000F053F80120FBF7FCFE302000F04F
:104990004DF80820FBF7F6FE202000F047F808202D
:1049A000FBF7F0FE282000F041F80120FBF7EAFEBB
:1049B000082000F03BF80120FBF7E4FE012000F0A6
:1049C00035F80320FBF7DEFE062000F02FF801206B
:1049D000FBF7D8FE0C2000F029F80320FBF7D2FEED
:1049E0000120BCE700000020040000200FB410B537
:1049F00086B009A8009001A8009A0899FEF702FF66
:104A000000200090002405E001A9085D00F034F8C2
:104A1000601CC4B201A8FBF7B9FBA04201D9142C59
:104A2000F2DB06B010BC5DF814FB00007CB5044658
:104A3000F02000EA041504F0F00646F00C008DF8B2
:104A4000040046F008008DF8050045F00C008DF8D4
:104A5000060045F008008DF80700C820042301AACD
:104A600000900348017803480068FCF701FA7CBD18
:104A700004000020000000207CB50446F02000EA7D
:104A8000041504F0F00646F00D008DF8040046F021
:104A900009008DF8050045F00D008DF8060045F081
:104AA00009008DF80700C820042301AA00900348DC
:104AB000017803480068FCF7DBF97CBD04000020A6
:104AC0000000002070B504460E4606F00F0524B91C
:104AD00045F080052846FFF7A9FF012C04D145F0D9
:104AE000C0052846FFF7A2FF022C04D145F094052B
:104AF0002846FFF79BFF032C04D145F0D405284638
:104B0000FFF794FF70BD00000FB410B5659C002046
:104B100015E002A931F810100B4A125C24F81210AB
:104B200023A931F81010094A125C24F8121044A984
:104B300031F81010064A125C24F81210401C40286C
:104B4000E7DB10BC5DF814FB2400002064000020AB
:104B5000A40000200FB4F0B569AC70CCA9B2200C51
:104B600040EA054082B2A3B200200CE0375C012F7E
:104B700008D1259F27F81010469F27F81020679F1F
:104B800027F81030401C4028F0DBF0BC5DF814FB27
:104B9000F0B505999CB2170C47EA0347BDB296B22F
:104BA00020F8114000F1840727F81150843727F8C6
:104BB0001160F0BD08B5FCF759FAFEF7ECFAFEF704
:104BC000A1F8FEF723F9FEF73FF9FEF753F9FEF7D8
:104BD00073F9FEF7C9F9FEF703FA04216848FDF7F7
:104BE000ADFB6848FDF717FA0C216648FDF7A6FBF8
:104BF0006548FDF739F86548006800F01DF90120A7
:104C0000634908706348644908600146C1F8600C54
:104C100000F5C670C1F8640C00F5C670C1F8680CE8
:104C200000F5C670C1F86C0C00F5C670C1F8700CC8
:104C300000F5C670C1F8740C00F5C670C1F8780CA8
:104C400000F5C670C1F87C0C0846C1F880008430BD
:104C5000C1F804018430C1F888018430C1F80C0225
:104C60008430C1F890028430C1F814038430C1F854
:104C700098038430C1F81C048430C1F8A004843047
:104C8000C1F824058430C1F8A8058430C1F82C0689
:104C90008430C1F8B0068430C1F834078430C1F8DC
:104CA000B8078430C1F83C088430C1F8C0088430AB
:104CB000C1F844098430C1F8C8098430C1F84C0AED
:104CC0008430C1F8D00A8430C1F8540B8430C1F864
:104CD000D80B8430C1F85C0C3048314A1278811806
:104CE00001223048FDF7CAFD00240AE0294900945A
:104CF0006FF0F0221314D1F8600CFFF749FF601C2D
:104D0000C4B2402CF2DB0120214908704FF47A70C4
:104D1000FBF738FD2448FFF709FEFFF7FEFDFFF71C
:104D2000F6FD22A0FFF762FE29E024480078012862
:104D300022D100202149087021480068FFF7E8FBD4
:104D4000154801681E480068FFF798FA1C4800687B
:104D5000FFF74EFA114890F8650048B10F4890F8F7
:104D600086204FF4FA7300F166010E48FDF7E4FD6A
:104D700013480068FFF706FA0A20FBF703FDD4E7A3
:104D8000FC010020BC010020640100201C00002068
:104D900014000020A0050020E400002020120020C4
:104DA000180000203C020020FC000020385E332068
:104DB00052474220426567696E21000015000020BD
:104DC000E800002010B5044624B94FF4004119480A
:104DD000FBF78CFE012C03D121021648FBF786FE5F
:104DE000022C03D121021348FBF780FE032C04D1CF
:104DF0004FF480610F48FBF779FE042C03D1610268
:104E00000C48FBF773FE052C04D14FF48051094880
:104E1000FBF76CFE062C04D14FF400510548FBF75C
:104E200065FE072C04D14FF480410248FBF75EFE7B
:104E300010BD0000000C01400146002003E00022EC
:104E400021F81020401CB0F5907FF8DB704770B55A
:104E500002460B4600200021002425E024B1012C4D
:104E60000AD0022C1FD116E032F81150C5F30715F5
:104E70001D54401C641C16E032F81150F02606EA5E
:104E800005154E1C32F81660C6F3032635431D5433
:104E9000401C641C07E04D1C12F815501D54401CAA
:104EA000891C002400BF00BFB0F5907FD6DB70BD29
:104EB00000000000000000000102030406070809CA
:104EC0000000000001020304E84E0008000000207A
:104ED000FC00000060380008E44F0008FC000020DF
:104EE00024320000703800080000000000000000BC
:104EF00000000000000000000000000000000100B1
:104F0000000000007C020020FC030020B2B5A0A33A
:104F1000A6919497BDBAAFACA99E9B9882857073F9
:104F2000766164678D8A7F7C796E6B6852554043E9
:104F3000463134375D5A4F4C493E3B3822251013D9
:104F4000160104072D2A1F1C190E0B08B1B4B7A2B5
:104F5000A5909396BEBBB8ADAA9F9C998184877299
:104F6000756063668E8B887D7A6F6C695154574289
:104F7000453033365E5B584D4A3F3C392124271279
:104F8000150003062E2B281D1A0F0C09B0B3B6A16D
:104F9000A4A79295BFBCB9AEABA89D9A8083867139
:104FA000747762658F8C897E7B786D6A5053564129
:104FB000444732355F5C594E4B483D3A2023261119
:104FC000141702052F2C291E1B180D0A00000000C3
:104FD000201200200000000010000000010000006E
:044FE0000024F400B5
:04000005080000ED02
:00000001FF
